{
  "_format": "hh-sol-artifact-1",
  "contractName": "SecretBallot",
  "sourceName": "contracts/SecretBallot.sol",
  "abi": [
    {
      "inputs": [],
      "name": "InvalidKMSSignatures",
      "type": "error"
    },
    {
      "inputs": [],
      "name": "ZamaProtocolUnsupported",
      "type": "error"
    },
    {
      "anonymous": false,
      "inputs": [
        {
          "indexed": true,
          "internalType": "uint256",
          "name": "pollId",
          "type": "uint256"
        }
      ],
      "name": "PollClosed",
      "type": "event"
    },
    {
      "anonymous": false,
      "inputs": [
        {
          "indexed": true,
          "internalType": "uint256",
          "name": "pollId",
          "type": "uint256"
        },
        {
          "indexed": false,
          "internalType": "string",
          "name": "question",
          "type": "string"
        },
        {
          "indexed": true,
          "internalType": "address",
          "name": "creator",
          "type": "address"
        },
        {
          "indexed": false,
          "internalType": "uint256",
          "name": "endTime",
          "type": "uint256"
        }
      ],
      "name": "PollCreated",
      "type": "event"
    },
    {
      "anonymous": false,
      "inputs": [
        {
          "indexed": false,
          "internalType": "bytes32[]",
          "name": "handlesList",
          "type": "bytes32[]"
        },
        {
          "indexed": false,
          "internalType": "bytes",
          "name": "abiEncodedCleartexts",
          "type": "bytes"
        }
      ],
      "name": "PublicDecryptionVerified",
      "type": "event"
    },
    {
      "anonymous": false,
      "inputs": [
        {
          "indexed": true,
          "internalType": "uint256",
          "name": "pollId",
          "type": "uint256"
        },
        {
          "indexed": false,
          "internalType": "uint256[]",
          "name": "results",
          "type": "uint256[]"
        }
      ],
      "name": "ResultsSubmitted",
      "type": "event"
    },
    {
      "anonymous": false,
      "inputs": [
        {
          "indexed": true,
          "internalType": "uint256",
          "name": "pollId",
          "type": "uint256"
        },
        {
          "indexed": true,
          "internalType": "address",
          "name": "voter",
          "type": "address"
        }
      ],
      "name": "VoteCast",
      "type": "event"
    },
    {
      "inputs": [
        {
          "internalType": "uint256",
          "name": "pollId",
          "type": "uint256"
        }
      ],
      "name": "closePoll",
      "outputs": [],
      "stateMutability": "nonpayable",
      "type": "function"
    },
    {
      "inputs": [],
      "name": "confidentialProtocolId",
      "outputs": [
        {
          "internalType": "uint256",
          "name": "",
          "type": "uint256"
        }
      ],
      "stateMutability": "view",
      "type": "function"
    },
    {
      "inputs": [
        {
          "internalType": "string",
          "name": "question",
          "type": "string"
        },
        {
          "internalType": "string[]",
          "name": "options",
          "type": "string[]"
        },
        {
          "internalType": "uint256",
          "name": "durationHours",
          "type": "uint256"
        }
      ],
      "name": "createPoll",
      "outputs": [
        {
          "internalType": "uint256",
          "name": "",
          "type": "uint256"
        }
      ],
      "stateMutability": "nonpayable",
      "type": "function"
    },
    {
      "inputs": [],
      "name": "getActivePollIds",
      "outputs": [
        {
          "internalType": "uint256[]",
          "name": "",
          "type": "uint256[]"
        }
      ],
      "stateMutability": "view",
      "type": "function"
    },
    {
      "inputs": [
        {
          "internalType": "uint256",
          "name": "pollId",
          "type": "uint256"
        }
      ],
      "name": "getFinalResults",
      "outputs": [
        {
          "internalType": "uint256[]",
          "name": "",
          "type": "uint256[]"
        }
      ],
      "stateMutability": "view",
      "type": "function"
    },
    {
      "inputs": [
        {
          "internalType": "uint256",
          "name": "pollId",
          "type": "uint256"
        }
      ],
      "name": "getPoll",
      "outputs": [
        {
          "internalType": "string",
          "name": "question",
          "type": "string"
        },
        {
          "internalType": "string[]",
          "name": "options",
          "type": "string[]"
        },
        {
          "internalType": "address",
          "name": "creator",
          "type": "address"
        },
        {
          "internalType": "uint256",
          "name": "endTime",
          "type": "uint256"
        },
        {
          "internalType": "bool",
          "name": "isActive",
          "type": "bool"
        }
      ],
      "stateMutability": "view",
      "type": "function"
    },
    {
      "inputs": [
        {
          "internalType": "uint256",
          "name": "pollId",
          "type": "uint256"
        },
        {
          "internalType": "uint256",
          "name": "optionIndex",
          "type": "uint256"
        }
      ],
      "name": "getVoteCount",
      "outputs": [
        {
          "internalType": "bytes32",
          "name": "",
          "type": "bytes32"
        }
      ],
      "stateMutability": "view",
      "type": "function"
    },
    {
      "inputs": [
        {
          "internalType": "uint256",
          "name": "pollId",
          "type": "uint256"
        },
        {
          "internalType": "address",
          "name": "voter",
          "type": "address"
        }
      ],
      "name": "hasVoted",
      "outputs": [
        {
          "internalType": "bool",
          "name": "",
          "type": "bool"
        }
      ],
      "stateMutability": "view",
      "type": "function"
    },
    {
      "inputs": [],
      "name": "pollCount",
      "outputs": [
        {
          "internalType": "uint256",
          "name": "",
          "type": "uint256"
        }
      ],
      "stateMutability": "view",
      "type": "function"
    },
    {
      "inputs": [
        {
          "internalType": "uint256",
          "name": "",
          "type": "uint256"
        }
      ],
      "name": "polls",
      "outputs": [
        {
          "internalType": "string",
          "name": "question",
          "type": "string"
        },
        {
          "internalType": "address",
          "name": "creator",
          "type": "address"
        },
        {
          "internalType": "uint256",
          "name": "endTime",
          "type": "uint256"
        },
        {
          "internalType": "bool",
          "name": "isActive",
          "type": "bool"
        }
      ],
      "stateMutability": "view",
      "type": "function"
    },
    {
      "inputs": [
        {
          "internalType": "uint256",
          "name": "pollId",
          "type": "uint256"
        },
        {
          "internalType": "uint256[]",
          "name": "decryptedResults",
          "type": "uint256[]"
        },
        {
          "internalType": "bytes",
          "name": "proof",
          "type": "bytes"
        }
      ],
      "name": "submitResults",
      "outputs": [],
      "stateMutability": "nonpayable",
      "type": "function"
    },
    {
      "inputs": [
        {
          "internalType": "uint256",
          "name": "pollId",
          "type": "uint256"
        },
        {
          "internalType": "externalEuint8",
          "name": "encryptedOption",
          "type": "bytes32"
        },
        {
          "internalType": "bytes",
          "name": "inputProof",
          "type": "bytes"
        }
      ],
      "name": "vote",
      "outputs": [],
      "stateMutability": "nonpayable",
      "type": "function"
    }
  ],
  "bytecode": "0x608060405234801562000010575f80fd5b50620000c86200001f620000ce565b80517f9e7b61f58c47dc699ac88507c4f5bb9f121c03808c5676a8078fe583e464970080546001600160a01b03199081166001600160a01b039384161790915560208301517f9e7b61f58c47dc699ac88507c4f5bb9f121c03808c5676a8078fe583e46497018054831691841691909117905560408301517f9e7b61f58c47dc699ac88507c4f5bb9f121c03808c5676a8078fe583e46497028054909216921691909117905550565b62000240565b604080516060810182525f80825260208201819052918101919091524660010362000128575060408051606080820183525f8083526020808401829052928401819052835191820184528082529181018290529182015290565b4662aa36a703620001a8575060408051606080820183525f8083526020808401829052928401528251908101835273f0ffdc93b7e186bc2f8cb3daa75d86d1930a433d81527392c920834ec8941d2c77d188936e1f7a6f49c1279181019190915273be0e383937d564d7ff0bc3b46c51f0bf8d5c311a9181019190915290565b46617a690362000227575060408051606080820183525f808352602080840182905292840152825190810183527350157cffd6bbfa2dece204a89ec419c23ef5755d815273e3a9105a3a932253a70f126eb1e3b589c643dd249181019190915273901f8942346f7ab3a01f6d7613119bca447bb0309181019190915290565b6040516373cac13b60e01b815260040160405180910390fd5b611d03806200024e5f395ff3fe608060405234801561000f575f80fd5b50600436106100b1575f3560e01c80638927b0301161006e5780638927b030146101555780639207891d1461016b5780639534e63714610174578063ac2f007414610187578063de2e19a0146101aa578063f8c860f4146101bd575f80fd5b8063135a3294146100b55780631a8cbcaa146100ca57806343859632146100f75780634495a3531461011a5780635eff1bb81461013a57806362cb7ce91461014d575b5f80fd5b6100c86100c33660046115a9565b6101d0565b005b6100dd6100d836600461166b565b6103dd565b6040516100ee9594939291906116c5565b60405180910390f35b61010a610105366004611752565b61058a565b60405190151581526020016100ee565b61012d61012836600461166b565b6105b7565b6040516100ee919061178b565b6100c86101483660046117ce565b610617565b61012d610814565b61015d6108fc565b6040519081526020016100ee565b61015d60015481565b6100c861018236600461166b565b61090a565b61019a61019536600461166b565b610a65565b6040516100ee9493929190611847565b61015d6101b8366004611880565b610b21565b61015d6101cb3660046118a0565b610b93565b5f838152602081905260409020600681015460ff161561022b5760405162461bcd60e51b8152602060048201526011602482015270506f6c6c207374696c6c2061637469766560781b60448201526064015b60405180910390fd5b60078101541561027d5760405162461bcd60e51b815260206004820152601960248201527f526573756c747320616c7265616479207375626d6974746564000000000000006044820152606401610222565b60018101548351146102ca5760405162461bcd60e51b8152602060048201526016602482015275092dcecc2d8d2c840e4cae6ead8e8e640d8cadccee8d60531b6044820152606401610222565b60018101545f9067ffffffffffffffff8111156102e9576102e96114d5565b604051908082528060200260200182016040528015610312578160200160208202803683370190505b5090505f5b6001830154811015610358575f81815260028401602052604090205482828151811061034557610345611974565b6020908102919091010152600101610317565b505f8460405160200161036b919061178b565b6040516020818303038152906040529050610387828286610d49565b845161039c90600785019060208801906113d6565b50857f3da3fce908f87941c090238726d4fc7c7842bbc889b08145d480c02bdf384760866040516103cd919061178b565b60405180910390a2505050505050565b5f818152602081905260408120600481015460058201546006830154835460609586959094859485949293849360018501936001600160a01b0316929160ff90911690859061042b90611988565b80601f016020809104026020016040519081016040528092919081815260200182805461045790611988565b80156104a25780601f10610479576101008083540402835291602001916104a2565b820191905f5260205f20905b81548152906001019060200180831161048557829003601f168201915b5050505050945083805480602002602001604051908101604052809291908181526020015f905b82821015610571578382905f5260205f200180546104e690611988565b80601f016020809104026020016040519081016040528092919081815260200182805461051290611988565b801561055d5780601f106105345761010080835404028352916020019161055d565b820191905f5260205f20905b81548152906001019060200180831161054057829003601f168201915b5050505050815260200190600101906104c9565b50979f929e50949c50929a509098509650505050505050565b5f828152602081815260408083206001600160a01b038516845260030190915290205460ff165b92915050565b5f818152602081815260409182902060070180548351818402810184019094528084526060939283018282801561060b57602002820191905f5260205f20905b8154815260200190600101908083116105f7575b50505050509050919050565b5f848152602081905260409020600681015460ff1661066a5760405162461bcd60e51b815260206004820152600f60248201526e506f6c6c206e6f742061637469766560881b6044820152606401610222565b806005015442106106aa5760405162461bcd60e51b815260206004820152600a602482015269141bdb1b08195b99195960b21b6044820152606401610222565b335f90815260038201602052604090205460ff16156106fb5760405162461bcd60e51b815260206004820152600d60248201526c105b1c9958591e481d9bdd1959609a1b6044820152606401610222565b5f61073b8585858080601f0160208091040260200160405190810160405280939291908181526020018383808284375f92019190915250610db492505050565b90505f5b60018301548110156107c9575f61075582610dc1565b90505f6107628483610dd0565b90505f610781826107736001610dfe565b61077c5f610dfe565b610e10565b5f85815260028801602052604090205490915061079e9082610e57565b5f85815260028801602052604090208190556107b990610e85565b50506001909201915061073f9050565b50335f818152600384016020526040808220805460ff191660011790555188917ff1003b73c437642c0460aee9cd9628b0b8c447b66e6c7c905531b9c644214a1191a3505050505050565b60605f805b600154811015610852575f8181526020819052604090206006015460ff161561084a5781610846816119d4565b9250505b600101610819565b505f8167ffffffffffffffff81111561086d5761086d6114d5565b604051908082528060200260200182016040528015610896578160200160208202803683370190505b5090505f805b6001548110156108f3575f8181526020819052604090206006015460ff16156108eb57808383815181106108d2576108d2611974565b6020908102919091010152816108e7816119d4565b9250505b60010161089c565b50909392505050565b5f610905610e94565b905090565b5f81815260208190526040902060048101546001600160a01b0316331461096c5760405162461bcd60e51b81526020600482015260166024820152754f6e6c792063726561746f722063616e20636c6f736560501b6044820152606401610222565b80600501544210156109b55760405162461bcd60e51b8152602060048201526012602482015271141bdb1b081b9bdd08195b991959081e595d60721b6044820152606401610222565b600681015460ff166109fa5760405162461bcd60e51b815260206004820152600e60248201526d105b1c9958591e4818db1bdcd95960921b6044820152606401610222565b5f5b6001820154811015610a2a575f818152600283016020526040902054610a2190610ec8565b506001016109fc565b5060068101805460ff1916905560405182907f703c67c157a1afb7d386ce5212ee88bf0a690bca998060e9595ebdfd747100ce905f90a25050565b5f60208190529081526040902080548190610a7f90611988565b80601f0160208091040260200160405190810160405280929190818152602001828054610aab90611988565b8015610af65780601f10610acd57610100808354040283529160200191610af6565b820191905f5260205f20905b815481529060010190602001808311610ad957829003601f168201915b505050506004830154600584015460069094015492936001600160a01b039091169290915060ff1684565b5f828152602081905260408120600101548210610b715760405162461bcd60e51b815260206004820152600e60248201526d24b73b30b634b21037b83a34b7b760911b6044820152606401610222565b5f838152602081815260408083208584526002019091529020545b9392505050565b5f80845111610be45760405162461bcd60e51b815260206004820152601860248201527f5175657374696f6e2063616e6e6f7420626520656d70747900000000000000006044820152606401610222565b6002835110158015610bf857506005835111155b610c3b5760405162461bcd60e51b81526020600482015260146024820152730c8b4d481bdc1d1a5bdb9cc81c995c5d5a5c995960621b6044820152606401610222565b600180545f9182610c4b836119d4565b909155505f81815260208190526040902090915080610c6a8782611a38565b508451610c80906001830190602088019061141b565b506004810180546001600160a01b03191633179055610ca184610e10611af8565b610cab9042611b0f565b600582015560068101805460ff191660011790555f5b8551811015610cf757610cd35f610dfe565b5f8281526002840160205260409020819055610cee90610e85565b50600101610cc1565b50336001600160a01b0316827f29f758df3e81eeecf732e452ff26f333ec14ae9aa2d08ae1ce7b5af71808026b888460050154604051610d38929190611b22565b60405180910390a350949350505050565b5f610d55848484610ed2565b905080610d755760405163cf6c44e960e01b815260040160405180910390fd5b7fc6366bab028b8d033cb362cfd1f2f3457ef4e92fc738b6788b90d5a7846367a08484604051610da6929190611b7d565b60405180910390a150505050565b5f610b8c83836002610f7f565b5f6105b18260ff166002611079565b5f82610de257610ddf5f610dc1565b92505b81610df357610df05f610dc1565b91505b610b8c83835f611108565b5f6105b18263ffffffff166004611079565b5f83610e2257610e1f5f6111c5565b93505b82610e3357610e305f610dfe565b92505b81610e4457610e415f610dfe565b91505b610e4f8484846111e0565b949350505050565b5f82610e6957610e665f610dfe565b92505b81610e7a57610e775f610dfe565b91505b610b8c83835f61126d565b5f610e9082306112e4565b5090565b5f46600103610ea35750600190565b4662aa36a703610eb4575061271190565b46617a6903610ec357505f1990565b505f90565b5f610e9082611358565b7f9e7b61f58c47dc699ac88507c4f5bb9f121c03808c5676a8078fe583e4649702546040516378542ead60e01b81525f915f80516020611cae833981519152916001600160a01b03909116906378542ead90610f3690889088908890600401611ba1565b6020604051808303815f875af1158015610f52573d5f803e3d5ffd5b505050506040513d601f19601f82011682018060405250810190610f769190611bd9565b95945050505050565b5f80516020611c8e8339815191525460405163045fc19560e11b81525f915f80516020611cae833981519152916001600160a01b03909116906308bf832a90610fd2908890339089908990600401611c18565b6020604051808303815f875af1158015610fee573d5f803e3d5ffd5b505050506040513d601f19601f820116820180604052508101906110129190611c50565b8154604051630f8e573b60e21b8152600481018390523360248201529193506001600160a01b031690633e395cec906044015f604051808303815f87803b15801561105b575f80fd5b505af115801561106d573d5f803e3d5ffd5b50505050509392505050565b5f80516020611c8e83398151915254604051639cd07acb60e01b81525f915f80516020611cae833981519152916001600160a01b0390911690639cd07acb906110c89087908790600401611c67565b6020604051808303815f875af11580156110e4573d5f803e3d5ffd5b505050506040513d601f19601f82011682018060405250810190610e4f9190611c50565b5f80821561111b5750600160f81b61111e565b505f5b5f80516020611c8e8339815191525460405163f77f3f1d60e01b815260048101879052602481018690526001600160f81b0319831660448201525f80516020611cae833981519152916001600160a01b03169063f77f3f1d906064015b6020604051808303815f875af1158015611197573d5f803e3d5ffd5b505050506040513d601f19601f820116820180604052508101906111bb9190611c50565b9695505050505050565b5f6105b1826111d4575f6111d7565b60015b60ff165f611079565b5f805f80516020611cae8339815191526001810154604051637702dcff60e01b81526004810188905260248101879052604481018690529192506001600160a01b031690637702dcff906064016020604051808303815f875af1158015611249573d5f803e3d5ffd5b505050506040513d601f19601f82011682018060405250810190610f769190611c50565b5f8082156112805750600160f81b611283565b505f5b5f80516020611c8e8339815191525460405163022f65e760e31b815260048101879052602481018690526001600160f81b0319831660448201525f80516020611cae833981519152916001600160a01b03169063117b2f389060640161117b565b5f80516020611cae8339815191528054604051635ca4b5b160e11b8152600481018590526001600160a01b0384811660248301529091169063b9496b62906044015b5f604051808303815f87803b15801561133d575f80fd5b505af115801561134f573d5f803e3d5ffd5b50505050505050565b6040805160018082528183019092525f80516020611cae833981519152915f91906020808301908036833701905050905082815f8151811061139c5761139c611974565b60209081029190910101528154604051637d6e912360e11b81526001600160a01b039091169063fadd224690611326908490600401611c7b565b828054828255905f5260205f2090810192821561140f579160200282015b8281111561140f5782518255916020019190600101906113f4565b50610e9092915061146b565b828054828255905f5260205f2090810192821561145f579160200282015b8281111561145f578251829061144f9082611a38565b5091602001919060010190611439565b50610e9092915061147f565b5b80821115610e90575f815560010161146c565b80821115610e90575f611492828261149b565b5060010161147f565b5080546114a790611988565b5f825580601f106114b6575050565b601f0160209004905f5260205f20908101906114d2919061146b565b50565b634e487b7160e01b5f52604160045260245ffd5b604051601f8201601f1916810167ffffffffffffffff81118282101715611512576115126114d5565b604052919050565b5f67ffffffffffffffff821115611533576115336114d5565b5060051b60200190565b5f82601f83011261154c575f80fd5b813567ffffffffffffffff811115611566576115666114d5565b611579601f8201601f19166020016114e9565b81815284602083860101111561158d575f80fd5b816020850160208301375f918101602001919091529392505050565b5f805f606084860312156115bb575f80fd5b8335925060208085013567ffffffffffffffff808211156115da575f80fd5b818701915087601f8301126115ed575f80fd5b81356116006115fb8261151a565b6114e9565b81815260059190911b8301840190848101908a83111561161e575f80fd5b938501935b8285101561163c57843582529385019390850190611623565b965050506040870135925080831115611653575f80fd5b50506116618682870161153d565b9150509250925092565b5f6020828403121561167b575f80fd5b5035919050565b5f81518084525f5b818110156116a65760208185018101518683018201520161168a565b505f602082860101526020601f19601f83011685010191505092915050565b60a081525f6116d760a0830188611682565b6020838203818501528188518084528284019150828160051b850101838b015f5b8381101561172657601f19878403018552611714838351611682565b948601949250908501906001016116f8565b50506001600160a01b038a16604088015260608701899052871515608088015294506111bb9350505050565b5f8060408385031215611763575f80fd5b8235915060208301356001600160a01b0381168114611780575f80fd5b809150509250929050565b602080825282518282018190525f9190848201906040850190845b818110156117c2578351835292840192918401916001016117a6565b50909695505050505050565b5f805f80606085870312156117e1575f80fd5b8435935060208501359250604085013567ffffffffffffffff80821115611806575f80fd5b818701915087601f830112611819575f80fd5b813581811115611827575f80fd5b886020828501011115611838575f80fd5b95989497505060200194505050565b608081525f6118596080830187611682565b6001600160a01b039590951660208301525060408101929092521515606090910152919050565b5f8060408385031215611891575f80fd5b50508035926020909101359150565b5f805f606084860312156118b2575f80fd5b833567ffffffffffffffff808211156118c9575f80fd5b6118d58783880161153d565b94506020915081860135818111156118eb575f80fd5b8601601f810188136118fb575f80fd5b80356119096115fb8261151a565b81815260059190911b8201840190848101908a831115611927575f80fd5b8584015b8381101561195d57803586811115611941575f80fd5b61194f8d898389010161153d565b84525091860191860161192b565b50979a979950505050604095909501359450505050565b634e487b7160e01b5f52603260045260245ffd5b600181811c9082168061199c57607f821691505b6020821081036119ba57634e487b7160e01b5f52602260045260245ffd5b50919050565b634e487b7160e01b5f52601160045260245ffd5b5f600182016119e5576119e56119c0565b5060010190565b601f821115611a3357805f5260205f20601f840160051c81016020851015611a115750805b601f840160051c820191505b81811015611a30575f8155600101611a1d565b50505b505050565b815167ffffffffffffffff811115611a5257611a526114d5565b611a6681611a608454611988565b846119ec565b602080601f831160018114611a99575f8415611a825750858301515b5f19600386901b1c1916600185901b178555611af0565b5f85815260208120601f198616915b82811015611ac757888601518255948401946001909101908401611aa8565b5085821015611ae457878501515f19600388901b60f8161c191681555b505060018460011b0185555b505050505050565b80820281158282048414176105b1576105b16119c0565b808201808211156105b1576105b16119c0565b604081525f611b346040830185611682565b90508260208301529392505050565b5f815180845260208085019450602084015f5b83811015611b7257815187529582019590820190600101611b56565b509495945050505050565b604081525f611b8f6040830185611b43565b8281036020840152610f768185611682565b606081525f611bb36060830186611b43565b8281036020840152611bc58186611682565b905082810360408401526111bb8185611682565b5f60208284031215611be9575f80fd5b81518015158114610b8c575f80fd5b60548110611c1457634e487b7160e01b5f52602160045260245ffd5b9052565b8481526001600160a01b03841660208201526080604082018190525f90611c4190830185611682565b9050610f766060830184611bf8565b5f60208284031215611c60575f80fd5b5051919050565b82815260408101610b8c6020830184611bf8565b602081525f610b8c6020830184611b4356fe9e7b61f58c47dc699ac88507c4f5bb9f121c03808c5676a8078fe583e46497019e7b61f58c47dc699ac88507c4f5bb9f121c03808c5676a8078fe583e4649700a2646970667358221220a519c5ce564bd579360f541f6a86f363126a45db6cc38991d5098d39b080a77f64736f6c63430008180033",
  "linkReferences": {},
  "deployedLinkReferences": {}
}