{
  "_format": "hh-sol-artifact-1",
  "contractName": "SecretBallot",
  "sourceName": "contracts/SecretBallot.sol",
  "abi": [
    {
      "inputs": [],
      "name": "InvalidKMSSignatures",
      "type": "error"
    },
    {
      "inputs": [],
      "name": "ZamaProtocolUnsupported",
      "type": "error"
    },
    {
      "anonymous": false,
      "inputs": [
        {
          "indexed": true,
          "internalType": "uint256",
          "name": "pollId",
          "type": "uint256"
        }
      ],
      "name": "PollClosed",
      "type": "event"
    },
    {
      "anonymous": false,
      "inputs": [
        {
          "indexed": true,
          "internalType": "uint256",
          "name": "pollId",
          "type": "uint256"
        },
        {
          "indexed": false,
          "internalType": "string",
          "name": "question",
          "type": "string"
        },
        {
          "indexed": true,
          "internalType": "address",
          "name": "creator",
          "type": "address"
        },
        {
          "indexed": false,
          "internalType": "uint256",
          "name": "endTime",
          "type": "uint256"
        }
      ],
      "name": "PollCreated",
      "type": "event"
    },
    {
      "anonymous": false,
      "inputs": [
        {
          "indexed": true,
          "internalType": "uint256",
          "name": "pollId",
          "type": "uint256"
        },
        {
          "indexed": true,
          "internalType": "address",
          "name": "creator",
          "type": "address"
        }
      ],
      "name": "PollDeleted",
      "type": "event"
    },
    {
      "anonymous": false,
      "inputs": [
        {
          "indexed": false,
          "internalType": "bytes32[]",
          "name": "handlesList",
          "type": "bytes32[]"
        },
        {
          "indexed": false,
          "internalType": "bytes",
          "name": "abiEncodedCleartexts",
          "type": "bytes"
        }
      ],
      "name": "PublicDecryptionVerified",
      "type": "event"
    },
    {
      "anonymous": false,
      "inputs": [
        {
          "indexed": true,
          "internalType": "uint256",
          "name": "pollId",
          "type": "uint256"
        },
        {
          "indexed": false,
          "internalType": "uint256[]",
          "name": "results",
          "type": "uint256[]"
        }
      ],
      "name": "ResultsSubmitted",
      "type": "event"
    },
    {
      "anonymous": false,
      "inputs": [
        {
          "indexed": true,
          "internalType": "uint256",
          "name": "pollId",
          "type": "uint256"
        },
        {
          "indexed": true,
          "internalType": "address",
          "name": "voter",
          "type": "address"
        }
      ],
      "name": "VoteCast",
      "type": "event"
    },
    {
      "inputs": [
        {
          "internalType": "uint256",
          "name": "pollId",
          "type": "uint256"
        }
      ],
      "name": "closePoll",
      "outputs": [],
      "stateMutability": "nonpayable",
      "type": "function"
    },
    {
      "inputs": [],
      "name": "confidentialProtocolId",
      "outputs": [
        {
          "internalType": "uint256",
          "name": "",
          "type": "uint256"
        }
      ],
      "stateMutability": "view",
      "type": "function"
    },
    {
      "inputs": [
        {
          "internalType": "string",
          "name": "question",
          "type": "string"
        },
        {
          "internalType": "string[]",
          "name": "options",
          "type": "string[]"
        },
        {
          "internalType": "uint256",
          "name": "durationMinutes",
          "type": "uint256"
        }
      ],
      "name": "createPoll",
      "outputs": [
        {
          "internalType": "uint256",
          "name": "",
          "type": "uint256"
        }
      ],
      "stateMutability": "nonpayable",
      "type": "function"
    },
    {
      "inputs": [
        {
          "internalType": "uint256",
          "name": "pollId",
          "type": "uint256"
        }
      ],
      "name": "deletePoll",
      "outputs": [],
      "stateMutability": "nonpayable",
      "type": "function"
    },
    {
      "inputs": [],
      "name": "getActivePollIds",
      "outputs": [
        {
          "internalType": "uint256[]",
          "name": "",
          "type": "uint256[]"
        }
      ],
      "stateMutability": "view",
      "type": "function"
    },
    {
      "inputs": [],
      "name": "getAllPollIds",
      "outputs": [
        {
          "internalType": "uint256[]",
          "name": "",
          "type": "uint256[]"
        }
      ],
      "stateMutability": "view",
      "type": "function"
    },
    {
      "inputs": [
        {
          "internalType": "uint256",
          "name": "pollId",
          "type": "uint256"
        }
      ],
      "name": "getFinalResults",
      "outputs": [
        {
          "internalType": "uint256[]",
          "name": "",
          "type": "uint256[]"
        }
      ],
      "stateMutability": "view",
      "type": "function"
    },
    {
      "inputs": [
        {
          "internalType": "uint256",
          "name": "pollId",
          "type": "uint256"
        }
      ],
      "name": "getPoll",
      "outputs": [
        {
          "internalType": "string",
          "name": "question",
          "type": "string"
        },
        {
          "internalType": "string[]",
          "name": "options",
          "type": "string[]"
        },
        {
          "internalType": "address",
          "name": "creator",
          "type": "address"
        },
        {
          "internalType": "uint256",
          "name": "endTime",
          "type": "uint256"
        },
        {
          "internalType": "bool",
          "name": "isActive",
          "type": "bool"
        }
      ],
      "stateMutability": "view",
      "type": "function"
    },
    {
      "inputs": [
        {
          "internalType": "uint256",
          "name": "pollId",
          "type": "uint256"
        },
        {
          "internalType": "uint256",
          "name": "optionIndex",
          "type": "uint256"
        }
      ],
      "name": "getVoteCount",
      "outputs": [
        {
          "internalType": "bytes32",
          "name": "",
          "type": "bytes32"
        }
      ],
      "stateMutability": "view",
      "type": "function"
    },
    {
      "inputs": [
        {
          "internalType": "uint256",
          "name": "pollId",
          "type": "uint256"
        },
        {
          "internalType": "address",
          "name": "voter",
          "type": "address"
        }
      ],
      "name": "hasVoted",
      "outputs": [
        {
          "internalType": "bool",
          "name": "",
          "type": "bool"
        }
      ],
      "stateMutability": "view",
      "type": "function"
    },
    {
      "inputs": [],
      "name": "pollCount",
      "outputs": [
        {
          "internalType": "uint256",
          "name": "",
          "type": "uint256"
        }
      ],
      "stateMutability": "view",
      "type": "function"
    },
    {
      "inputs": [
        {
          "internalType": "uint256",
          "name": "pollId",
          "type": "uint256"
        }
      ],
      "name": "pollExists",
      "outputs": [
        {
          "internalType": "bool",
          "name": "",
          "type": "bool"
        }
      ],
      "stateMutability": "view",
      "type": "function"
    },
    {
      "inputs": [
        {
          "internalType": "uint256",
          "name": "",
          "type": "uint256"
        }
      ],
      "name": "polls",
      "outputs": [
        {
          "internalType": "string",
          "name": "question",
          "type": "string"
        },
        {
          "internalType": "address",
          "name": "creator",
          "type": "address"
        },
        {
          "internalType": "uint256",
          "name": "endTime",
          "type": "uint256"
        },
        {
          "internalType": "bool",
          "name": "isActive",
          "type": "bool"
        },
        {
          "internalType": "bool",
          "name": "exists",
          "type": "bool"
        }
      ],
      "stateMutability": "view",
      "type": "function"
    },
    {
      "inputs": [
        {
          "internalType": "uint256",
          "name": "pollId",
          "type": "uint256"
        },
        {
          "internalType": "bytes",
          "name": "abiEncodedResults",
          "type": "bytes"
        },
        {
          "internalType": "bytes",
          "name": "decryptionProof",
          "type": "bytes"
        }
      ],
      "name": "submitResults",
      "outputs": [],
      "stateMutability": "nonpayable",
      "type": "function"
    },
    {
      "inputs": [
        {
          "internalType": "uint256",
          "name": "pollId",
          "type": "uint256"
        },
        {
          "internalType": "externalEuint8",
          "name": "encryptedOption",
          "type": "bytes32"
        },
        {
          "internalType": "bytes",
          "name": "inputProof",
          "type": "bytes"
        }
      ],
      "name": "vote",
      "outputs": [],
      "stateMutability": "nonpayable",
      "type": "function"
    }
  ],
  "bytecode": "0x608060405234801562000010575f80fd5b50620000c86200001f620000ce565b80517f9e7b61f58c47dc699ac88507c4f5bb9f121c03808c5676a8078fe583e464970080546001600160a01b03199081166001600160a01b039384161790915560208301517f9e7b61f58c47dc699ac88507c4f5bb9f121c03808c5676a8078fe583e46497018054831691841691909117905560408301517f9e7b61f58c47dc699ac88507c4f5bb9f121c03808c5676a8078fe583e46497028054909216921691909117905550565b62000240565b604080516060810182525f80825260208201819052918101919091524660010362000128575060408051606080820183525f8083526020808401829052928401819052835191820184528082529181018290529182015290565b4662aa36a703620001a8575060408051606080820183525f8083526020808401829052928401528251908101835273f0ffdc93b7e186bc2f8cb3daa75d86d1930a433d81527392c920834ec8941d2c77d188936e1f7a6f49c1279181019190915273be0e383937d564d7ff0bc3b46c51f0bf8d5c311a9181019190915290565b46617a690362000227575060408051606080820183525f808352602080840182905292840152825190810183527350157cffd6bbfa2dece204a89ec419c23ef5755d815273e3a9105a3a932253a70f126eb1e3b589c643dd249181019190915273901f8942346f7ab3a01f6d7613119bca447bb0309181019190915290565b6040516373cac13b60e01b815260040160405180910390fd5b612541806200024e5f395ff3fe608060405234801561000f575f80fd5b50600436106100f0575f3560e01c806388d21ff311610093578063ac2f007411610063578063ac2f0074146101fe578063de2e19a014610222578063ee0ca51714610235578063f8c860f41461023d575f80fd5b806388d21ff3146101a75780638927b030146101cc5780639207891d146101e25780639534e637146101eb575f80fd5b80634495a353116100ce5780634495a353146101595780635eff1bb81461017957806362cb7ce91461018c5780636695090f14610194575f80fd5b80631a8cbcaa146100f45780631f35b51d146101215780634385963214610136575b5f80fd5b610107610102366004611c0e565b610250565b604051610118959493929190611c68565b60405180910390f35b61013461012f366004611c0e565b61042b565b005b610149610144366004611cf5565b610502565b6040519015158152602001610118565b61016c610167366004611c0e565b610560565b6040516101189190611d2e565b610134610187366004611d71565b6105f1565b61016c610812565b6101346101a2366004611e9b565b610968565b6101496101b5366004611c0e565b5f9081526020819052604090206008015460ff1690565b6101d4610e8c565b604051908152602001610118565b6101d460015481565b6101346101f9366004611c0e565b610e9a565b61021161020c366004611c0e565b611019565b604051610118959493929190611f03565b6101d4610230366004611f44565b6110de565b61016c611180565b6101d461024b366004611f64565b61125f565b5f8181526020819052604081206008810154606092839290918291829160ff166102955760405162461bcd60e51b815260040161028c9061204a565b60405180910390fd5b6004810154600582015460068301548354849360018501936001600160a01b0390911692909160ff9091169085906102cc90612077565b80601f01602080910402602001604051908101604052809291908181526020018280546102f890612077565b80156103435780601f1061031a57610100808354040283529160200191610343565b820191905f5260205f20905b81548152906001019060200180831161032657829003601f168201915b5050505050945083805480602002602001604051908101604052809291908181526020015f905b82821015610412578382905f5260205f2001805461038790612077565b80601f01602080910402602001604051908101604052809291908181526020018280546103b390612077565b80156103fe5780601f106103d5576101008083540402835291602001916103fe565b820191905f5260205f20905b8154815290600101906020018083116103e157829003601f168201915b50505050508152602001906001019061036a565b50979f929e50949c50929a509098509650505050505050565b5f818152602081905260409020600881015460ff1661045c5760405162461bcd60e51b815260040161028c9061204a565b60048101546001600160a01b031633146104b85760405162461bcd60e51b815260206004820152601760248201527f4f6e6c792063726561746f722063616e2064656c657465000000000000000000604482015260640161028c565b60088101805460ff199081169091556006820180549091169055604051339083907f05b0e65544d0436a1daaedf13ce02b014ed3a784e1cc64858063a94d228c989d905f90a35050565b5f8281526020819052604081206008015460ff166105325760405162461bcd60e51b815260040161028c9061204a565b505f828152602081815260408083206001600160a01b038516845260030190915290205460ff165b92915050565b5f8181526020819052604090206008015460609060ff166105935760405162461bcd60e51b815260040161028c9061204a565b5f8281526020818152604091829020600701805483518184028101840190945280845290918301828280156105e557602002820191905f5260205f20905b8154815260200190600101908083116105d1575b50505050509050919050565b5f848152602081905260409020600881015460ff166106225760405162461bcd60e51b815260040161028c9061204a565b600681015460ff166106685760405162461bcd60e51b815260206004820152600f60248201526e506f6c6c206e6f742061637469766560881b604482015260640161028c565b806005015442106106a85760405162461bcd60e51b815260206004820152600a602482015269141bdb1b08195b99195960b21b604482015260640161028c565b335f90815260038201602052604090205460ff16156106f95760405162461bcd60e51b815260206004820152600d60248201526c105b1c9958591e481d9bdd1959609a1b604482015260640161028c565b5f6107398585858080601f0160208091040260200160405190810160405280939291908181526020018383808284375f9201919091525061148292505050565b90505f5b60018301548110156107c7575f6107538261148f565b90505f610760848361149e565b90505f61077f8261077160016114cc565b61077a5f6114cc565b6114de565b5f85815260028801602052604090205490915061079c9082611525565b5f85815260028801602052604090208190556107b790611553565b50506001909201915061073d9050565b50335f818152600384016020526040808220805460ff191660011790555188917ff1003b73c437642c0460aee9cd9628b0b8c447b66e6c7c905531b9c644214a1191a3505050505050565b60605f805b600154811015610887575f8181526020819052604090206008015460ff16801561085157505f8181526020819052604090206006015460ff165b801561086c57505f8181526020819052604090206005015442105b1561087f578161087b816120c3565b9250505b600101610817565b505f8167ffffffffffffffff8111156108a2576108a2611dea565b6040519080825280602002602001820160405280156108cb578160200160208202803683370190505b5090505f805b60015481101561095f575f8181526020819052604090206008015460ff16801561090b57505f8181526020819052604090206006015460ff165b801561092657505f8181526020819052604090206005015442105b15610957578083838151811061093e5761093e6120db565b602090810291909101015281610953816120c3565b9250505b6001016108d1565b50909392505050565b5f838152602081905260409020600881015460ff166109995760405162461bcd60e51b815260040161028c9061204a565b600681015460ff16156109e25760405162461bcd60e51b8152602060048201526011602482015270506f6c6c207374696c6c2061637469766560781b604482015260640161028c565b600781015415610a345760405162461bcd60e51b815260206004820152601960248201527f526573756c747320616c7265616479207375626d697474656400000000000000604482015260640161028c565b60018101545f9067ffffffffffffffff811115610a5357610a53611dea565b604051908082528060200260200182016040528015610a7c578160200160208202803683370190505b5090505f5b6001830154811015610ac2575f818152600284016020526040902054828281518110610aaf57610aaf6120db565b6020908102919091010152600101610a81565b50610ace818585611562565b60018201545f9067ffffffffffffffff811115610aed57610aed611dea565b604051908082528060200260200182016040528015610b16578160200160208202803683370190505b506001840154909150600203610b92575f8086806020019051810190610b3c9190612107565b915091508163ffffffff16835f81518110610b5957610b596120db565b6020026020010181815250508063ffffffff1683600181518110610b7f57610b7f6120db565b6020026020010181815250505050610e36565b6001830154600303610c34575f805f87806020019051810190610bb59190612138565b9250925092508263ffffffff16845f81518110610bd457610bd46120db565b6020026020010181815250508163ffffffff1684600181518110610bfa57610bfa6120db565b6020026020010181815250508063ffffffff1684600281518110610c2057610c206120db565b602002602001018181525050505050610e36565b6001830154600403610d00575f805f8088806020019051810190610c589190612178565b93509350935093508363ffffffff16855f81518110610c7957610c796120db565b6020026020010181815250508263ffffffff1685600181518110610c9f57610c9f6120db565b6020026020010181815250508163ffffffff1685600281518110610cc557610cc56120db565b6020026020010181815250508063ffffffff1685600381518110610ceb57610ceb6120db565b60200260200101818152505050505050610e36565b6001830154600503610df6575f805f805f89806020019051810190610d2591906121c9565b945094509450945094508463ffffffff16865f81518110610d4857610d486120db565b6020026020010181815250508363ffffffff1686600181518110610d6e57610d6e6120db565b6020026020010181815250508263ffffffff1686600281518110610d9457610d946120db565b6020026020010181815250508163ffffffff1686600381518110610dba57610dba6120db565b6020026020010181815250508063ffffffff1686600481518110610de057610de06120db565b6020026020010181815250505050505050610e36565b60405162461bcd60e51b8152602060048201526015602482015274125b9d985b1a59081bdc1d1a5bdb9cc818dbdd5b9d605a1b604482015260640161028c565b8051610e4b9060078501906020840190611b0f565b50857f3da3fce908f87941c090238726d4fc7c7842bbc889b08145d480c02bdf38476082604051610e7c9190611d2e565b60405180910390a2505050505050565b5f610e956115cd565b905090565b5f818152602081905260409020600881015460ff16610ecb5760405162461bcd60e51b815260040161028c9061204a565b60048101546001600160a01b03163314610f205760405162461bcd60e51b81526020600482015260166024820152754f6e6c792063726561746f722063616e20636c6f736560501b604482015260640161028c565b8060050154421015610f695760405162461bcd60e51b8152602060048201526012602482015271141bdb1b081b9bdd08195b991959081e595d60721b604482015260640161028c565b600681015460ff16610fae5760405162461bcd60e51b815260206004820152600e60248201526d105b1c9958591e4818db1bdcd95960921b604482015260640161028c565b5f5b6001820154811015610fde575f818152600283016020526040902054610fd590611601565b50600101610fb0565b5060068101805460ff1916905560405182907f703c67c157a1afb7d386ce5212ee88bf0a690bca998060e9595ebdfd747100ce905f90a25050565b5f6020819052908152604090208054819061103390612077565b80601f016020809104026020016040519081016040528092919081815260200182805461105f90612077565b80156110aa5780601f10611081576101008083540402835291602001916110aa565b820191905f5260205f20905b81548152906001019060200180831161108d57829003601f168201915b50505060048401546005850154600686015460089096015494956001600160a01b039092169490935060ff91821692501685565b5f8281526020819052604081206008015460ff1661110e5760405162461bcd60e51b815260040161028c9061204a565b5f83815260208190526040902060010154821061115e5760405162461bcd60e51b815260206004820152600e60248201526d24b73b30b634b21037b83a34b7b760911b604482015260640161028c565b5f838152602081815260408083208584526002019091529020545b9392505050565b60605f805b6001548110156111be575f8181526020819052604090206008015460ff16156111b657816111b2816120c3565b9250505b600101611185565b505f8167ffffffffffffffff8111156111d9576111d9611dea565b604051908082528060200260200182016040528015611202578160200160208202803683370190505b5090505f805b60015481101561095f575f8181526020819052604090206008015460ff1615611257578083838151811061123e5761123e6120db565b602090810291909101015281611253816120c3565b9250505b600101611208565b5f808451116112b05760405162461bcd60e51b815260206004820152601860248201527f5175657374696f6e2063616e6e6f7420626520656d7074790000000000000000604482015260640161028c565b60028351101580156112c457506005835111155b6113075760405162461bcd60e51b81526020600482015260146024820152730c8b4d481bdc1d1a5bdb9cc81c995c5d5a5c995960621b604482015260640161028c565b60018210156113635760405162461bcd60e51b815260206004820152602260248201527f4475726174696f6e206d757374206265206174206c656173742031206d696e75604482015261746560f01b606482015260840161028c565b600180545f9182611373836120c3565b909155505f818152602081905260409020909150806113928782612276565b5084516113a89060018301906020880190611b54565b506004810180546001600160a01b031916331790556113c884603c612336565b6113d2904261234d565b6005820155600681018054600160ff19918216811790925560088301805490911690911790555f5b85518110156114305761140c5f6114cc565b5f828152600284016020526040902081905561142790611553565b506001016113fa565b50336001600160a01b0316827f29f758df3e81eeecf732e452ff26f333ec14ae9aa2d08ae1ce7b5af71808026b888460050154604051611471929190612360565b60405180910390a350949350505050565b5f6111798383600261160b565b5f61055a8260ff166002611705565b5f826114b0576114ad5f61148f565b92505b816114c1576114be5f61148f565b91505b61117983835f611794565b5f61055a8263ffffffff166004611705565b5f836114f0576114ed5f611851565b93505b82611501576114fe5f6114cc565b92505b816115125761150f5f6114cc565b91505b61151d84848461186c565b949350505050565b5f82611537576115345f6114cc565b92505b81611548576115455f6114cc565b91505b61117983835f611902565b5f61155e8230611979565b5090565b5f61156e8484846119ed565b90508061158e5760405163cf6c44e960e01b815260040160405180910390fd5b7fc6366bab028b8d033cb362cfd1f2f3457ef4e92fc738b6788b90d5a7846367a084846040516115bf9291906123bb565b60405180910390a150505050565b5f466001036115dc5750600190565b4662aa36a7036115ed575061271190565b46617a69036115fc57505f1990565b505f90565b5f61155e82611a91565b5f805160206124cc8339815191525460405163045fc19560e11b81525f915f805160206124ec833981519152916001600160a01b03909116906308bf832a9061165e9088903390899089906004016123ff565b6020604051808303815f875af115801561167a573d5f803e3d5ffd5b505050506040513d601f19601f8201168201806040525081019061169e9190612437565b8154604051630f8e573b60e21b8152600481018390523360248201529193506001600160a01b031690633e395cec906044015f604051808303815f87803b1580156116e7575f80fd5b505af11580156116f9573d5f803e3d5ffd5b50505050509392505050565b5f805160206124cc83398151915254604051639cd07acb60e01b81525f915f805160206124ec833981519152916001600160a01b0390911690639cd07acb90611754908790879060040161244e565b6020604051808303815f875af1158015611770573d5f803e3d5ffd5b505050506040513d601f19601f8201168201806040525081019061151d9190612437565b5f8082156117a75750600160f81b6117aa565b505f5b5f805160206124cc8339815191525460405163f77f3f1d60e01b815260048101879052602481018690526001600160f81b0319831660448201525f805160206124ec833981519152916001600160a01b03169063f77f3f1d906064015b6020604051808303815f875af1158015611823573d5f803e3d5ffd5b505050506040513d601f19601f820116820180604052508101906118479190612437565b9695505050505050565b5f61055a82611860575f611863565b60015b60ff165f611705565b5f805f805160206124ec8339815191526001810154604051637702dcff60e01b81526004810188905260248101879052604481018690529192506001600160a01b031690637702dcff906064016020604051808303815f875af11580156118d5573d5f803e3d5ffd5b505050506040513d601f19601f820116820180604052508101906118f99190612437565b95945050505050565b5f8082156119155750600160f81b611918565b505f5b5f805160206124cc8339815191525460405163022f65e760e31b815260048101879052602481018690526001600160f81b0319831660448201525f805160206124ec833981519152916001600160a01b03169063117b2f3890606401611807565b5f805160206124ec8339815191528054604051635ca4b5b160e11b8152600481018590526001600160a01b0384811660248301529091169063b9496b62906044015b5f604051808303815f87803b1580156119d2575f80fd5b505af11580156119e4573d5f803e3d5ffd5b50505050505050565b7f9e7b61f58c47dc699ac88507c4f5bb9f121c03808c5676a8078fe583e4649702546040516378542ead60e01b81525f915f805160206124ec833981519152916001600160a01b03909116906378542ead90611a5190889088908890600401612462565b6020604051808303815f875af1158015611a6d573d5f803e3d5ffd5b505050506040513d601f19601f820116820180604052508101906118f9919061249a565b6040805160018082528183019092525f805160206124ec833981519152915f91906020808301908036833701905050905082815f81518110611ad557611ad56120db565b60209081029190910101528154604051637d6e912360e11b81526001600160a01b039091169063fadd2246906119bb9084906004016124b9565b828054828255905f5260205f20908101928215611b48579160200282015b82811115611b48578251825591602001919060010190611b2d565b5061155e929150611ba4565b828054828255905f5260205f20908101928215611b98579160200282015b82811115611b985782518290611b889082612276565b5091602001919060010190611b72565b5061155e929150611bb8565b5b8082111561155e575f8155600101611ba5565b8082111561155e575f611bcb8282611bd4565b50600101611bb8565b508054611be090612077565b5f825580601f10611bef575050565b601f0160209004905f5260205f2090810190611c0b9190611ba4565b50565b5f60208284031215611c1e575f80fd5b5035919050565b5f81518084525f5b81811015611c4957602081850181015186830182015201611c2d565b505f602082860101526020601f19601f83011685010191505092915050565b60a081525f611c7a60a0830188611c25565b6020838203818501528188518084528284019150828160051b850101838b015f5b83811015611cc957601f19878403018552611cb7838351611c25565b94860194925090850190600101611c9b565b50506001600160a01b038a16604088015260608701899052871515608088015294506118479350505050565b5f8060408385031215611d06575f80fd5b8235915060208301356001600160a01b0381168114611d23575f80fd5b809150509250929050565b602080825282518282018190525f9190848201906040850190845b81811015611d6557835183529284019291840191600101611d49565b50909695505050505050565b5f805f8060608587031215611d84575f80fd5b8435935060208501359250604085013567ffffffffffffffff80821115611da9575f80fd5b818701915087601f830112611dbc575f80fd5b813581811115611dca575f80fd5b886020828501011115611ddb575f80fd5b95989497505060200194505050565b634e487b7160e01b5f52604160045260245ffd5b604051601f8201601f1916810167ffffffffffffffff81118282101715611e2757611e27611dea565b604052919050565b5f82601f830112611e3e575f80fd5b813567ffffffffffffffff811115611e5857611e58611dea565b611e6b601f8201601f1916602001611dfe565b818152846020838601011115611e7f575f80fd5b816020850160208301375f918101602001919091529392505050565b5f805f60608486031215611ead575f80fd5b83359250602084013567ffffffffffffffff80821115611ecb575f80fd5b611ed787838801611e2f565b93506040860135915080821115611eec575f80fd5b50611ef986828701611e2f565b9150509250925092565b60a081525f611f1560a0830188611c25565b6001600160a01b0396909616602083015250604081019390935290151560608301521515608090910152919050565b5f8060408385031215611f55575f80fd5b50508035926020909101359150565b5f805f60608486031215611f76575f80fd5b833567ffffffffffffffff80821115611f8d575f80fd5b611f9987838801611e2f565b9450602091508186013581811115611faf575f80fd5b8601601f81018813611fbf575f80fd5b803582811115611fd157611fd1611dea565b8060051b611fe0858201611dfe565b918252828101850191858101908b841115611ff9575f80fd5b86850192505b8383101561203357823586811115612015575f80fd5b6120238d8983890101611e2f565b8352509186019190860190611fff565b989b989a5050505060409690960135955050505050565b602080825260139082015272141bdb1b08191bd95cc81b9bdd08195e1a5cdd606a1b604082015260600190565b600181811c9082168061208b57607f821691505b6020821081036120a957634e487b7160e01b5f52602260045260245ffd5b50919050565b634e487b7160e01b5f52601160045260245ffd5b5f600182016120d4576120d46120af565b5060010190565b634e487b7160e01b5f52603260045260245ffd5b805163ffffffff81168114612102575f80fd5b919050565b5f8060408385031215612118575f80fd5b612121836120ef565b915061212f602084016120ef565b90509250929050565b5f805f6060848603121561214a575f80fd5b612153846120ef565b9250612161602085016120ef565b915061216f604085016120ef565b90509250925092565b5f805f806080858703121561218b575f80fd5b612194856120ef565b93506121a2602086016120ef565b92506121b0604086016120ef565b91506121be606086016120ef565b905092959194509250565b5f805f805f60a086880312156121dd575f80fd5b6121e6866120ef565b94506121f4602087016120ef565b9350612202604087016120ef565b9250612210606087016120ef565b915061221e608087016120ef565b90509295509295909350565b601f82111561227157805f5260205f20601f840160051c8101602085101561224f5750805b601f840160051c820191505b8181101561226e575f815560010161225b565b50505b505050565b815167ffffffffffffffff81111561229057612290611dea565b6122a48161229e8454612077565b8461222a565b602080601f8311600181146122d7575f84156122c05750858301515b5f19600386901b1c1916600185901b17855561232e565b5f85815260208120601f198616915b82811015612305578886015182559484019460019091019084016122e6565b508582101561232257878501515f19600388901b60f8161c191681555b505060018460011b0185555b505050505050565b808202811582820484141761055a5761055a6120af565b8082018082111561055a5761055a6120af565b604081525f6123726040830185611c25565b90508260208301529392505050565b5f815180845260208085019450602084015f5b838110156123b057815187529582019590820190600101612394565b509495945050505050565b604081525f6123cd6040830185612381565b82810360208401526118f98185611c25565b605481106123fb57634e487b7160e01b5f52602160045260245ffd5b9052565b8481526001600160a01b03841660208201526080604082018190525f9061242890830185611c25565b90506118f960608301846123df565b5f60208284031215612447575f80fd5b5051919050565b8281526040810161117960208301846123df565b606081525f6124746060830186612381565b82810360208401526124868186611c25565b905082810360408401526118478185611c25565b5f602082840312156124aa575f80fd5b81518015158114611179575f80fd5b602081525f611179602083018461238156fe9e7b61f58c47dc699ac88507c4f5bb9f121c03808c5676a8078fe583e46497019e7b61f58c47dc699ac88507c4f5bb9f121c03808c5676a8078fe583e4649700a264697066735822122099c5ce18e2cf2e517680a6209a80a9de547ab075339bf51e0d226c744986529864736f6c63430008180033",
  "linkReferences": {},
  "deployedLinkReferences": {}
}