{
  "_format": "hh-sol-artifact-1",
  "contractName": "SecretBallot",
  "sourceName": "contracts/SecretBallot.sol",
  "abi": [
    {
      "inputs": [],
      "name": "InvalidKMSSignatures",
      "type": "error"
    },
    {
      "inputs": [],
      "name": "ZamaProtocolUnsupported",
      "type": "error"
    },
    {
      "anonymous": false,
      "inputs": [
        {
          "indexed": true,
          "internalType": "uint256",
          "name": "pollId",
          "type": "uint256"
        }
      ],
      "name": "PollClosed",
      "type": "event"
    },
    {
      "anonymous": false,
      "inputs": [
        {
          "indexed": true,
          "internalType": "uint256",
          "name": "pollId",
          "type": "uint256"
        },
        {
          "indexed": false,
          "internalType": "string",
          "name": "question",
          "type": "string"
        },
        {
          "indexed": true,
          "internalType": "address",
          "name": "creator",
          "type": "address"
        },
        {
          "indexed": false,
          "internalType": "uint256",
          "name": "endTime",
          "type": "uint256"
        }
      ],
      "name": "PollCreated",
      "type": "event"
    },
    {
      "anonymous": false,
      "inputs": [
        {
          "indexed": true,
          "internalType": "uint256",
          "name": "pollId",
          "type": "uint256"
        },
        {
          "indexed": true,
          "internalType": "address",
          "name": "creator",
          "type": "address"
        }
      ],
      "name": "PollDeleted",
      "type": "event"
    },
    {
      "anonymous": false,
      "inputs": [
        {
          "indexed": false,
          "internalType": "bytes32[]",
          "name": "handlesList",
          "type": "bytes32[]"
        },
        {
          "indexed": false,
          "internalType": "bytes",
          "name": "abiEncodedCleartexts",
          "type": "bytes"
        }
      ],
      "name": "PublicDecryptionVerified",
      "type": "event"
    },
    {
      "anonymous": false,
      "inputs": [
        {
          "indexed": true,
          "internalType": "uint256",
          "name": "pollId",
          "type": "uint256"
        },
        {
          "indexed": false,
          "internalType": "uint256[]",
          "name": "results",
          "type": "uint256[]"
        }
      ],
      "name": "ResultsSubmitted",
      "type": "event"
    },
    {
      "anonymous": false,
      "inputs": [
        {
          "indexed": true,
          "internalType": "uint256",
          "name": "pollId",
          "type": "uint256"
        },
        {
          "indexed": true,
          "internalType": "address",
          "name": "voter",
          "type": "address"
        }
      ],
      "name": "VoteCast",
      "type": "event"
    },
    {
      "inputs": [
        {
          "internalType": "uint256",
          "name": "pollId",
          "type": "uint256"
        }
      ],
      "name": "closePoll",
      "outputs": [],
      "stateMutability": "nonpayable",
      "type": "function"
    },
    {
      "inputs": [],
      "name": "confidentialProtocolId",
      "outputs": [
        {
          "internalType": "uint256",
          "name": "",
          "type": "uint256"
        }
      ],
      "stateMutability": "view",
      "type": "function"
    },
    {
      "inputs": [
        {
          "internalType": "string",
          "name": "question",
          "type": "string"
        },
        {
          "internalType": "string[]",
          "name": "options",
          "type": "string[]"
        },
        {
          "internalType": "uint256",
          "name": "durationMinutes",
          "type": "uint256"
        }
      ],
      "name": "createPoll",
      "outputs": [
        {
          "internalType": "uint256",
          "name": "",
          "type": "uint256"
        }
      ],
      "stateMutability": "nonpayable",
      "type": "function"
    },
    {
      "inputs": [
        {
          "internalType": "uint256",
          "name": "pollId",
          "type": "uint256"
        }
      ],
      "name": "deletePoll",
      "outputs": [],
      "stateMutability": "nonpayable",
      "type": "function"
    },
    {
      "inputs": [],
      "name": "getActivePollIds",
      "outputs": [
        {
          "internalType": "uint256[]",
          "name": "",
          "type": "uint256[]"
        }
      ],
      "stateMutability": "view",
      "type": "function"
    },
    {
      "inputs": [],
      "name": "getAllPollIds",
      "outputs": [
        {
          "internalType": "uint256[]",
          "name": "",
          "type": "uint256[]"
        }
      ],
      "stateMutability": "view",
      "type": "function"
    },
    {
      "inputs": [
        {
          "internalType": "uint256",
          "name": "pollId",
          "type": "uint256"
        }
      ],
      "name": "getFinalResults",
      "outputs": [
        {
          "internalType": "uint256[]",
          "name": "",
          "type": "uint256[]"
        }
      ],
      "stateMutability": "view",
      "type": "function"
    },
    {
      "inputs": [
        {
          "internalType": "uint256",
          "name": "pollId",
          "type": "uint256"
        }
      ],
      "name": "getPoll",
      "outputs": [
        {
          "internalType": "string",
          "name": "question",
          "type": "string"
        },
        {
          "internalType": "string[]",
          "name": "options",
          "type": "string[]"
        },
        {
          "internalType": "address",
          "name": "creator",
          "type": "address"
        },
        {
          "internalType": "uint256",
          "name": "endTime",
          "type": "uint256"
        },
        {
          "internalType": "bool",
          "name": "isActive",
          "type": "bool"
        }
      ],
      "stateMutability": "view",
      "type": "function"
    },
    {
      "inputs": [
        {
          "internalType": "uint256",
          "name": "pollId",
          "type": "uint256"
        },
        {
          "internalType": "uint256",
          "name": "optionIndex",
          "type": "uint256"
        }
      ],
      "name": "getVoteCount",
      "outputs": [
        {
          "internalType": "bytes32",
          "name": "",
          "type": "bytes32"
        }
      ],
      "stateMutability": "view",
      "type": "function"
    },
    {
      "inputs": [
        {
          "internalType": "uint256",
          "name": "pollId",
          "type": "uint256"
        },
        {
          "internalType": "address",
          "name": "voter",
          "type": "address"
        }
      ],
      "name": "hasVoted",
      "outputs": [
        {
          "internalType": "bool",
          "name": "",
          "type": "bool"
        }
      ],
      "stateMutability": "view",
      "type": "function"
    },
    {
      "inputs": [],
      "name": "pollCount",
      "outputs": [
        {
          "internalType": "uint256",
          "name": "",
          "type": "uint256"
        }
      ],
      "stateMutability": "view",
      "type": "function"
    },
    {
      "inputs": [
        {
          "internalType": "uint256",
          "name": "pollId",
          "type": "uint256"
        }
      ],
      "name": "pollExists",
      "outputs": [
        {
          "internalType": "bool",
          "name": "",
          "type": "bool"
        }
      ],
      "stateMutability": "view",
      "type": "function"
    },
    {
      "inputs": [
        {
          "internalType": "uint256",
          "name": "",
          "type": "uint256"
        }
      ],
      "name": "polls",
      "outputs": [
        {
          "internalType": "string",
          "name": "question",
          "type": "string"
        },
        {
          "internalType": "address",
          "name": "creator",
          "type": "address"
        },
        {
          "internalType": "uint256",
          "name": "endTime",
          "type": "uint256"
        },
        {
          "internalType": "bool",
          "name": "isActive",
          "type": "bool"
        },
        {
          "internalType": "bool",
          "name": "exists",
          "type": "bool"
        }
      ],
      "stateMutability": "view",
      "type": "function"
    },
    {
      "inputs": [
        {
          "internalType": "uint256",
          "name": "pollId",
          "type": "uint256"
        },
        {
          "internalType": "uint256[]",
          "name": "decryptedResults",
          "type": "uint256[]"
        },
        {
          "internalType": "bytes",
          "name": "proof",
          "type": "bytes"
        }
      ],
      "name": "submitResults",
      "outputs": [],
      "stateMutability": "nonpayable",
      "type": "function"
    },
    {
      "inputs": [
        {
          "internalType": "uint256",
          "name": "pollId",
          "type": "uint256"
        },
        {
          "internalType": "externalEuint8",
          "name": "encryptedOption",
          "type": "bytes32"
        },
        {
          "internalType": "bytes",
          "name": "inputProof",
          "type": "bytes"
        }
      ],
      "name": "vote",
      "outputs": [],
      "stateMutability": "nonpayable",
      "type": "function"
    }
  ],
  "bytecode": "0x608060405234801562000010575f80fd5b50620000c86200001f620000ce565b80517f9e7b61f58c47dc699ac88507c4f5bb9f121c03808c5676a8078fe583e464970080546001600160a01b03199081166001600160a01b039384161790915560208301517f9e7b61f58c47dc699ac88507c4f5bb9f121c03808c5676a8078fe583e46497018054831691841691909117905560408301517f9e7b61f58c47dc699ac88507c4f5bb9f121c03808c5676a8078fe583e46497028054909216921691909117905550565b62000240565b604080516060810182525f80825260208201819052918101919091524660010362000128575060408051606080820183525f8083526020808401829052928401819052835191820184528082529181018290529182015290565b4662aa36a703620001a8575060408051606080820183525f8083526020808401829052928401528251908101835273f0ffdc93b7e186bc2f8cb3daa75d86d1930a433d81527392c920834ec8941d2c77d188936e1f7a6f49c1279181019190915273be0e383937d564d7ff0bc3b46c51f0bf8d5c311a9181019190915290565b46617a690362000227575060408051606080820183525f808352602080840182905292840152825190810183527350157cffd6bbfa2dece204a89ec419c23ef5755d815273e3a9105a3a932253a70f126eb1e3b589c643dd249181019190915273901f8942346f7ab3a01f6d7613119bca447bb0309181019190915290565b6040516373cac13b60e01b815260040160405180910390fd5b612179806200024e5f395ff3fe608060405234801561000f575f80fd5b50600436106100f0575f3560e01c806388d21ff311610093578063ac2f007411610063578063ac2f0074146101fe578063de2e19a014610222578063ee0ca51714610235578063f8c860f41461023d575f80fd5b806388d21ff3146101a75780638927b030146101cc5780639207891d146101e25780639534e637146101eb575f80fd5b806343859632116100ce57806343859632146101495780634495a3531461016c5780635eff1bb81461018c57806362cb7ce91461019f575f80fd5b8063135a3294146100f45780631a8cbcaa146101095780631f35b51d14610136575b5f80fd5b6101076101023660046119ea565b610250565b005b61011c610117366004611aac565b610485565b60405161012d959493929190611b06565b60405180910390f35b610107610144366004611aac565b610657565b61015c610157366004611b93565b61072e565b604051901515815260200161012d565b61017f61017a366004611aac565b61078c565b60405161012d9190611bcc565b61010761019a366004611c0f565b61081d565b61017f610a3e565b61015c6101b5366004611aac565b5f9081526020819052604090206008015460ff1690565b6101d4610b94565b60405190815260200161012d565b6101d460015481565b6101076101f9366004611aac565b610ba2565b61021161020c366004611aac565b610d21565b60405161012d959493929190611c88565b6101d4610230366004611cc9565b610de6565b61017f610e88565b6101d461024b366004611ce9565b610f67565b5f838152602081905260409020600881015460ff1661028a5760405162461bcd60e51b815260040161028190611dbd565b60405180910390fd5b600681015460ff16156102d35760405162461bcd60e51b8152602060048201526011602482015270506f6c6c207374696c6c2061637469766560781b6044820152606401610281565b6007810154156103255760405162461bcd60e51b815260206004820152601960248201527f526573756c747320616c7265616479207375626d6974746564000000000000006044820152606401610281565b60018101548351146103725760405162461bcd60e51b8152602060048201526016602482015275092dcecc2d8d2c840e4cae6ead8e8e640d8cadccee8d60531b6044820152606401610281565b60018101545f9067ffffffffffffffff81111561039157610391611916565b6040519080825280602002602001820160405280156103ba578160200160208202803683370190505b5090505f5b6001830154811015610400575f8181526002840160205260409020548282815181106103ed576103ed611dea565b60209081029190910101526001016103bf565b505f846040516020016104139190611bcc565b604051602081830303815290604052905061042f82828661118a565b84516104449060078501906020880190611817565b50857f3da3fce908f87941c090238726d4fc7c7842bbc889b08145d480c02bdf384760866040516104759190611bcc565b60405180910390a2505050505050565b5f8181526020819052604081206008810154606092839290918291829160ff166104c15760405162461bcd60e51b815260040161028190611dbd565b6004810154600582015460068301548354849360018501936001600160a01b0390911692909160ff9091169085906104f890611dfe565b80601f016020809104026020016040519081016040528092919081815260200182805461052490611dfe565b801561056f5780601f106105465761010080835404028352916020019161056f565b820191905f5260205f20905b81548152906001019060200180831161055257829003601f168201915b5050505050945083805480602002602001604051908101604052809291908181526020015f905b8282101561063e578382905f5260205f200180546105b390611dfe565b80601f01602080910402602001604051908101604052809291908181526020018280546105df90611dfe565b801561062a5780601f106106015761010080835404028352916020019161062a565b820191905f5260205f20905b81548152906001019060200180831161060d57829003601f168201915b505050505081526020019060010190610596565b50979f929e50949c50929a509098509650505050505050565b5f818152602081905260409020600881015460ff166106885760405162461bcd60e51b815260040161028190611dbd565b60048101546001600160a01b031633146106e45760405162461bcd60e51b815260206004820152601760248201527f4f6e6c792063726561746f722063616e2064656c6574650000000000000000006044820152606401610281565b60088101805460ff199081169091556006820180549091169055604051339083907f05b0e65544d0436a1daaedf13ce02b014ed3a784e1cc64858063a94d228c989d905f90a35050565b5f8281526020819052604081206008015460ff1661075e5760405162461bcd60e51b815260040161028190611dbd565b505f828152602081815260408083206001600160a01b038516845260030190915290205460ff165b92915050565b5f8181526020819052604090206008015460609060ff166107bf5760405162461bcd60e51b815260040161028190611dbd565b5f82815260208181526040918290206007018054835181840281018401909452808452909183018282801561081157602002820191905f5260205f20905b8154815260200190600101908083116107fd575b50505050509050919050565b5f848152602081905260409020600881015460ff1661084e5760405162461bcd60e51b815260040161028190611dbd565b600681015460ff166108945760405162461bcd60e51b815260206004820152600f60248201526e506f6c6c206e6f742061637469766560881b6044820152606401610281565b806005015442106108d45760405162461bcd60e51b815260206004820152600a602482015269141bdb1b08195b99195960b21b6044820152606401610281565b335f90815260038201602052604090205460ff16156109255760405162461bcd60e51b815260206004820152600d60248201526c105b1c9958591e481d9bdd1959609a1b6044820152606401610281565b5f6109658585858080601f0160208091040260200160405190810160405280939291908181526020018383808284375f920191909152506111f592505050565b90505f5b60018301548110156109f3575f61097f82611202565b90505f61098c8483611211565b90505f6109ab8261099d600161123f565b6109a65f61123f565b611251565b5f8581526002880160205260409020549091506109c89082611298565b5f85815260028801602052604090208190556109e3906112c6565b5050600190920191506109699050565b50335f818152600384016020526040808220805460ff191660011790555188917ff1003b73c437642c0460aee9cd9628b0b8c447b66e6c7c905531b9c644214a1191a3505050505050565b60605f805b600154811015610ab3575f8181526020819052604090206008015460ff168015610a7d57505f8181526020819052604090206006015460ff165b8015610a9857505f8181526020819052604090206005015442105b15610aab5781610aa781611e4a565b9250505b600101610a43565b505f8167ffffffffffffffff811115610ace57610ace611916565b604051908082528060200260200182016040528015610af7578160200160208202803683370190505b5090505f805b600154811015610b8b575f8181526020819052604090206008015460ff168015610b3757505f8181526020819052604090206006015460ff165b8015610b5257505f8181526020819052604090206005015442105b15610b835780838381518110610b6a57610b6a611dea565b602090810291909101015281610b7f81611e4a565b9250505b600101610afd565b50909392505050565b5f610b9d6112d5565b905090565b5f818152602081905260409020600881015460ff16610bd35760405162461bcd60e51b815260040161028190611dbd565b60048101546001600160a01b03163314610c285760405162461bcd60e51b81526020600482015260166024820152754f6e6c792063726561746f722063616e20636c6f736560501b6044820152606401610281565b8060050154421015610c715760405162461bcd60e51b8152602060048201526012602482015271141bdb1b081b9bdd08195b991959081e595d60721b6044820152606401610281565b600681015460ff16610cb65760405162461bcd60e51b815260206004820152600e60248201526d105b1c9958591e4818db1bdcd95960921b6044820152606401610281565b5f5b6001820154811015610ce6575f818152600283016020526040902054610cdd90611309565b50600101610cb8565b5060068101805460ff1916905560405182907f703c67c157a1afb7d386ce5212ee88bf0a690bca998060e9595ebdfd747100ce905f90a25050565b5f60208190529081526040902080548190610d3b90611dfe565b80601f0160208091040260200160405190810160405280929190818152602001828054610d6790611dfe565b8015610db25780601f10610d8957610100808354040283529160200191610db2565b820191905f5260205f20905b815481529060010190602001808311610d9557829003601f168201915b50505060048401546005850154600686015460089096015494956001600160a01b039092169490935060ff91821692501685565b5f8281526020819052604081206008015460ff16610e165760405162461bcd60e51b815260040161028190611dbd565b5f838152602081905260409020600101548210610e665760405162461bcd60e51b815260206004820152600e60248201526d24b73b30b634b21037b83a34b7b760911b6044820152606401610281565b5f838152602081815260408083208584526002019091529020545b9392505050565b60605f805b600154811015610ec6575f8181526020819052604090206008015460ff1615610ebe5781610eba81611e4a565b9250505b600101610e8d565b505f8167ffffffffffffffff811115610ee157610ee1611916565b604051908082528060200260200182016040528015610f0a578160200160208202803683370190505b5090505f805b600154811015610b8b575f8181526020819052604090206008015460ff1615610f5f5780838381518110610f4657610f46611dea565b602090810291909101015281610f5b81611e4a565b9250505b600101610f10565b5f80845111610fb85760405162461bcd60e51b815260206004820152601860248201527f5175657374696f6e2063616e6e6f7420626520656d70747900000000000000006044820152606401610281565b6002835110158015610fcc57506005835111155b61100f5760405162461bcd60e51b81526020600482015260146024820152730c8b4d481bdc1d1a5bdb9cc81c995c5d5a5c995960621b6044820152606401610281565b600182101561106b5760405162461bcd60e51b815260206004820152602260248201527f4475726174696f6e206d757374206265206174206c656173742031206d696e75604482015261746560f01b6064820152608401610281565b600180545f918261107b83611e4a565b909155505f8181526020819052604090209091508061109a8782611eae565b5084516110b0906001830190602088019061185c565b506004810180546001600160a01b031916331790556110d084603c611f6e565b6110da9042611f85565b6005820155600681018054600160ff19918216811790925560088301805490911690911790555f5b8551811015611138576111145f61123f565b5f828152600284016020526040902081905561112f906112c6565b50600101611102565b50336001600160a01b0316827f29f758df3e81eeecf732e452ff26f333ec14ae9aa2d08ae1ce7b5af71808026b888460050154604051611179929190611f98565b60405180910390a350949350505050565b5f611196848484611313565b9050806111b65760405163cf6c44e960e01b815260040160405180910390fd5b7fc6366bab028b8d033cb362cfd1f2f3457ef4e92fc738b6788b90d5a7846367a084846040516111e7929190611ff3565b60405180910390a150505050565b5f610e81838360026113c0565b5f6107868260ff1660026114ba565b5f82611223576112205f611202565b92505b81611234576112315f611202565b91505b610e8183835f611549565b5f6107868263ffffffff1660046114ba565b5f83611263576112605f611606565b93505b82611274576112715f61123f565b92505b81611285576112825f61123f565b91505b611290848484611621565b949350505050565b5f826112aa576112a75f61123f565b92505b816112bb576112b85f61123f565b91505b610e8183835f6116ae565b5f6112d18230611725565b5090565b5f466001036112e45750600190565b4662aa36a7036112f5575061271190565b46617a690361130457505f1990565b505f90565b5f6112d182611799565b7f9e7b61f58c47dc699ac88507c4f5bb9f121c03808c5676a8078fe583e4649702546040516378542ead60e01b81525f915f80516020612124833981519152916001600160a01b03909116906378542ead9061137790889088908890600401612017565b6020604051808303815f875af1158015611393573d5f803e3d5ffd5b505050506040513d601f19601f820116820180604052508101906113b7919061204f565b95945050505050565b5f805160206121048339815191525460405163045fc19560e11b81525f915f80516020612124833981519152916001600160a01b03909116906308bf832a9061141390889033908990899060040161208e565b6020604051808303815f875af115801561142f573d5f803e3d5ffd5b505050506040513d601f19601f8201168201806040525081019061145391906120c6565b8154604051630f8e573b60e21b8152600481018390523360248201529193506001600160a01b031690633e395cec906044015f604051808303815f87803b15801561149c575f80fd5b505af11580156114ae573d5f803e3d5ffd5b50505050509392505050565b5f8051602061210483398151915254604051639cd07acb60e01b81525f915f80516020612124833981519152916001600160a01b0390911690639cd07acb9061150990879087906004016120dd565b6020604051808303815f875af1158015611525573d5f803e3d5ffd5b505050506040513d601f19601f8201168201806040525081019061129091906120c6565b5f80821561155c5750600160f81b61155f565b505f5b5f805160206121048339815191525460405163f77f3f1d60e01b815260048101879052602481018690526001600160f81b0319831660448201525f80516020612124833981519152916001600160a01b03169063f77f3f1d906064015b6020604051808303815f875af11580156115d8573d5f803e3d5ffd5b505050506040513d601f19601f820116820180604052508101906115fc91906120c6565b9695505050505050565b5f61078682611615575f611618565b60015b60ff165f6114ba565b5f805f805160206121248339815191526001810154604051637702dcff60e01b81526004810188905260248101879052604481018690529192506001600160a01b031690637702dcff906064016020604051808303815f875af115801561168a573d5f803e3d5ffd5b505050506040513d601f19601f820116820180604052508101906113b791906120c6565b5f8082156116c15750600160f81b6116c4565b505f5b5f805160206121048339815191525460405163022f65e760e31b815260048101879052602481018690526001600160f81b0319831660448201525f80516020612124833981519152916001600160a01b03169063117b2f38906064016115bc565b5f805160206121248339815191528054604051635ca4b5b160e11b8152600481018590526001600160a01b0384811660248301529091169063b9496b62906044015b5f604051808303815f87803b15801561177e575f80fd5b505af1158015611790573d5f803e3d5ffd5b50505050505050565b6040805160018082528183019092525f80516020612124833981519152915f91906020808301908036833701905050905082815f815181106117dd576117dd611dea565b60209081029190910101528154604051637d6e912360e11b81526001600160a01b039091169063fadd2246906117679084906004016120f1565b828054828255905f5260205f20908101928215611850579160200282015b82811115611850578251825591602001919060010190611835565b506112d19291506118ac565b828054828255905f5260205f209081019282156118a0579160200282015b828111156118a057825182906118909082611eae565b509160200191906001019061187a565b506112d19291506118c0565b5b808211156112d1575f81556001016118ad565b808211156112d1575f6118d382826118dc565b506001016118c0565b5080546118e890611dfe565b5f825580601f106118f7575050565b601f0160209004905f5260205f209081019061191391906118ac565b50565b634e487b7160e01b5f52604160045260245ffd5b604051601f8201601f1916810167ffffffffffffffff8111828210171561195357611953611916565b604052919050565b5f67ffffffffffffffff82111561197457611974611916565b5060051b60200190565b5f82601f83011261198d575f80fd5b813567ffffffffffffffff8111156119a7576119a7611916565b6119ba601f8201601f191660200161192a565b8181528460208386010111156119ce575f80fd5b816020850160208301375f918101602001919091529392505050565b5f805f606084860312156119fc575f80fd5b8335925060208085013567ffffffffffffffff80821115611a1b575f80fd5b818701915087601f830112611a2e575f80fd5b8135611a41611a3c8261195b565b61192a565b81815260059190911b8301840190848101908a831115611a5f575f80fd5b938501935b82851015611a7d57843582529385019390850190611a64565b965050506040870135925080831115611a94575f80fd5b5050611aa28682870161197e565b9150509250925092565b5f60208284031215611abc575f80fd5b5035919050565b5f81518084525f5b81811015611ae757602081850181015186830182015201611acb565b505f602082860101526020601f19601f83011685010191505092915050565b60a081525f611b1860a0830188611ac3565b6020838203818501528188518084528284019150828160051b850101838b015f5b83811015611b6757601f19878403018552611b55838351611ac3565b94860194925090850190600101611b39565b50506001600160a01b038a16604088015260608701899052871515608088015294506115fc9350505050565b5f8060408385031215611ba4575f80fd5b8235915060208301356001600160a01b0381168114611bc1575f80fd5b809150509250929050565b602080825282518282018190525f9190848201906040850190845b81811015611c0357835183529284019291840191600101611be7565b50909695505050505050565b5f805f8060608587031215611c22575f80fd5b8435935060208501359250604085013567ffffffffffffffff80821115611c47575f80fd5b818701915087601f830112611c5a575f80fd5b813581811115611c68575f80fd5b886020828501011115611c79575f80fd5b95989497505060200194505050565b60a081525f611c9a60a0830188611ac3565b6001600160a01b0396909616602083015250604081019390935290151560608301521515608090910152919050565b5f8060408385031215611cda575f80fd5b50508035926020909101359150565b5f805f60608486031215611cfb575f80fd5b833567ffffffffffffffff80821115611d12575f80fd5b611d1e8783880161197e565b9450602091508186013581811115611d34575f80fd5b8601601f81018813611d44575f80fd5b8035611d52611a3c8261195b565b81815260059190911b8201840190848101908a831115611d70575f80fd5b8584015b83811015611da657803586811115611d8a575f80fd5b611d988d898389010161197e565b845250918601918601611d74565b50979a979950505050604095909501359450505050565b602080825260139082015272141bdb1b08191bd95cc81b9bdd08195e1a5cdd606a1b604082015260600190565b634e487b7160e01b5f52603260045260245ffd5b600181811c90821680611e1257607f821691505b602082108103611e3057634e487b7160e01b5f52602260045260245ffd5b50919050565b634e487b7160e01b5f52601160045260245ffd5b5f60018201611e5b57611e5b611e36565b5060010190565b601f821115611ea957805f5260205f20601f840160051c81016020851015611e875750805b601f840160051c820191505b81811015611ea6575f8155600101611e93565b50505b505050565b815167ffffffffffffffff811115611ec857611ec8611916565b611edc81611ed68454611dfe565b84611e62565b602080601f831160018114611f0f575f8415611ef85750858301515b5f19600386901b1c1916600185901b178555611f66565b5f85815260208120601f198616915b82811015611f3d57888601518255948401946001909101908401611f1e565b5085821015611f5a57878501515f19600388901b60f8161c191681555b505060018460011b0185555b505050505050565b808202811582820484141761078657610786611e36565b8082018082111561078657610786611e36565b604081525f611faa6040830185611ac3565b90508260208301529392505050565b5f815180845260208085019450602084015f5b83811015611fe857815187529582019590820190600101611fcc565b509495945050505050565b604081525f6120056040830185611fb9565b82810360208401526113b78185611ac3565b606081525f6120296060830186611fb9565b828103602084015261203b8186611ac3565b905082810360408401526115fc8185611ac3565b5f6020828403121561205f575f80fd5b81518015158114610e81575f80fd5b6054811061208a57634e487b7160e01b5f52602160045260245ffd5b9052565b8481526001600160a01b03841660208201526080604082018190525f906120b790830185611ac3565b90506113b7606083018461206e565b5f602082840312156120d6575f80fd5b5051919050565b82815260408101610e81602083018461206e565b602081525f610e816020830184611fb956fe9e7b61f58c47dc699ac88507c4f5bb9f121c03808c5676a8078fe583e46497019e7b61f58c47dc699ac88507c4f5bb9f121c03808c5676a8078fe583e4649700a2646970667358221220a4242d3b563a69b23e50ff864a8cf893bc66a7d5e308618281ab398980f2230e64736f6c63430008180033",
  "linkReferences": {},
  "deployedLinkReferences": {}
}