{
  "_format": "hh-sol-artifact-1",
  "contractName": "SecretBallot",
  "sourceName": "contracts/SecretBallot.sol",
  "abi": [
    {
      "inputs": [],
      "name": "InvalidKMSSignatures",
      "type": "error"
    },
    {
      "inputs": [],
      "name": "ZamaProtocolUnsupported",
      "type": "error"
    },
    {
      "anonymous": false,
      "inputs": [
        {
          "indexed": true,
          "internalType": "uint256",
          "name": "pollId",
          "type": "uint256"
        }
      ],
      "name": "PollClosed",
      "type": "event"
    },
    {
      "anonymous": false,
      "inputs": [
        {
          "indexed": true,
          "internalType": "uint256",
          "name": "pollId",
          "type": "uint256"
        },
        {
          "indexed": false,
          "internalType": "string",
          "name": "question",
          "type": "string"
        },
        {
          "indexed": true,
          "internalType": "address",
          "name": "creator",
          "type": "address"
        },
        {
          "indexed": false,
          "internalType": "uint256",
          "name": "endTime",
          "type": "uint256"
        }
      ],
      "name": "PollCreated",
      "type": "event"
    },
    {
      "anonymous": false,
      "inputs": [
        {
          "indexed": true,
          "internalType": "uint256",
          "name": "pollId",
          "type": "uint256"
        },
        {
          "indexed": true,
          "internalType": "address",
          "name": "creator",
          "type": "address"
        }
      ],
      "name": "PollDeleted",
      "type": "event"
    },
    {
      "anonymous": false,
      "inputs": [
        {
          "indexed": false,
          "internalType": "bytes32[]",
          "name": "handlesList",
          "type": "bytes32[]"
        },
        {
          "indexed": false,
          "internalType": "bytes",
          "name": "abiEncodedCleartexts",
          "type": "bytes"
        }
      ],
      "name": "PublicDecryptionVerified",
      "type": "event"
    },
    {
      "anonymous": false,
      "inputs": [
        {
          "indexed": true,
          "internalType": "uint256",
          "name": "pollId",
          "type": "uint256"
        },
        {
          "indexed": false,
          "internalType": "uint256[]",
          "name": "results",
          "type": "uint256[]"
        }
      ],
      "name": "ResultsSubmitted",
      "type": "event"
    },
    {
      "anonymous": false,
      "inputs": [
        {
          "indexed": true,
          "internalType": "uint256",
          "name": "pollId",
          "type": "uint256"
        },
        {
          "indexed": true,
          "internalType": "address",
          "name": "voter",
          "type": "address"
        }
      ],
      "name": "VoteCast",
      "type": "event"
    },
    {
      "inputs": [
        {
          "internalType": "uint256",
          "name": "pollId",
          "type": "uint256"
        }
      ],
      "name": "closePoll",
      "outputs": [],
      "stateMutability": "nonpayable",
      "type": "function"
    },
    {
      "inputs": [],
      "name": "confidentialProtocolId",
      "outputs": [
        {
          "internalType": "uint256",
          "name": "",
          "type": "uint256"
        }
      ],
      "stateMutability": "view",
      "type": "function"
    },
    {
      "inputs": [
        {
          "internalType": "string",
          "name": "question",
          "type": "string"
        },
        {
          "internalType": "string[]",
          "name": "options",
          "type": "string[]"
        },
        {
          "internalType": "uint256",
          "name": "durationHours",
          "type": "uint256"
        }
      ],
      "name": "createPoll",
      "outputs": [
        {
          "internalType": "uint256",
          "name": "",
          "type": "uint256"
        }
      ],
      "stateMutability": "nonpayable",
      "type": "function"
    },
    {
      "inputs": [
        {
          "internalType": "uint256",
          "name": "pollId",
          "type": "uint256"
        }
      ],
      "name": "deletePoll",
      "outputs": [],
      "stateMutability": "nonpayable",
      "type": "function"
    },
    {
      "inputs": [],
      "name": "getActivePollIds",
      "outputs": [
        {
          "internalType": "uint256[]",
          "name": "",
          "type": "uint256[]"
        }
      ],
      "stateMutability": "view",
      "type": "function"
    },
    {
      "inputs": [
        {
          "internalType": "uint256",
          "name": "pollId",
          "type": "uint256"
        }
      ],
      "name": "getFinalResults",
      "outputs": [
        {
          "internalType": "uint256[]",
          "name": "",
          "type": "uint256[]"
        }
      ],
      "stateMutability": "view",
      "type": "function"
    },
    {
      "inputs": [
        {
          "internalType": "uint256",
          "name": "pollId",
          "type": "uint256"
        }
      ],
      "name": "getPoll",
      "outputs": [
        {
          "internalType": "string",
          "name": "question",
          "type": "string"
        },
        {
          "internalType": "string[]",
          "name": "options",
          "type": "string[]"
        },
        {
          "internalType": "address",
          "name": "creator",
          "type": "address"
        },
        {
          "internalType": "uint256",
          "name": "endTime",
          "type": "uint256"
        },
        {
          "internalType": "bool",
          "name": "isActive",
          "type": "bool"
        }
      ],
      "stateMutability": "view",
      "type": "function"
    },
    {
      "inputs": [
        {
          "internalType": "uint256",
          "name": "pollId",
          "type": "uint256"
        },
        {
          "internalType": "uint256",
          "name": "optionIndex",
          "type": "uint256"
        }
      ],
      "name": "getVoteCount",
      "outputs": [
        {
          "internalType": "bytes32",
          "name": "",
          "type": "bytes32"
        }
      ],
      "stateMutability": "view",
      "type": "function"
    },
    {
      "inputs": [
        {
          "internalType": "uint256",
          "name": "pollId",
          "type": "uint256"
        },
        {
          "internalType": "address",
          "name": "voter",
          "type": "address"
        }
      ],
      "name": "hasVoted",
      "outputs": [
        {
          "internalType": "bool",
          "name": "",
          "type": "bool"
        }
      ],
      "stateMutability": "view",
      "type": "function"
    },
    {
      "inputs": [],
      "name": "pollCount",
      "outputs": [
        {
          "internalType": "uint256",
          "name": "",
          "type": "uint256"
        }
      ],
      "stateMutability": "view",
      "type": "function"
    },
    {
      "inputs": [
        {
          "internalType": "uint256",
          "name": "pollId",
          "type": "uint256"
        }
      ],
      "name": "pollExists",
      "outputs": [
        {
          "internalType": "bool",
          "name": "",
          "type": "bool"
        }
      ],
      "stateMutability": "view",
      "type": "function"
    },
    {
      "inputs": [
        {
          "internalType": "uint256",
          "name": "",
          "type": "uint256"
        }
      ],
      "name": "polls",
      "outputs": [
        {
          "internalType": "string",
          "name": "question",
          "type": "string"
        },
        {
          "internalType": "address",
          "name": "creator",
          "type": "address"
        },
        {
          "internalType": "uint256",
          "name": "endTime",
          "type": "uint256"
        },
        {
          "internalType": "bool",
          "name": "isActive",
          "type": "bool"
        },
        {
          "internalType": "bool",
          "name": "exists",
          "type": "bool"
        }
      ],
      "stateMutability": "view",
      "type": "function"
    },
    {
      "inputs": [
        {
          "internalType": "uint256",
          "name": "pollId",
          "type": "uint256"
        },
        {
          "internalType": "uint256[]",
          "name": "decryptedResults",
          "type": "uint256[]"
        },
        {
          "internalType": "bytes",
          "name": "proof",
          "type": "bytes"
        }
      ],
      "name": "submitResults",
      "outputs": [],
      "stateMutability": "nonpayable",
      "type": "function"
    },
    {
      "inputs": [
        {
          "internalType": "uint256",
          "name": "pollId",
          "type": "uint256"
        },
        {
          "internalType": "externalEuint8",
          "name": "encryptedOption",
          "type": "bytes32"
        },
        {
          "internalType": "bytes",
          "name": "inputProof",
          "type": "bytes"
        }
      ],
      "name": "vote",
      "outputs": [],
      "stateMutability": "nonpayable",
      "type": "function"
    }
  ],
  "bytecode": "0x608060405234801562000010575f80fd5b50620000c86200001f620000ce565b80517f9e7b61f58c47dc699ac88507c4f5bb9f121c03808c5676a8078fe583e464970080546001600160a01b03199081166001600160a01b039384161790915560208301517f9e7b61f58c47dc699ac88507c4f5bb9f121c03808c5676a8078fe583e46497018054831691841691909117905560408301517f9e7b61f58c47dc699ac88507c4f5bb9f121c03808c5676a8078fe583e46497028054909216921691909117905550565b62000240565b604080516060810182525f80825260208201819052918101919091524660010362000128575060408051606080820183525f8083526020808401829052928401819052835191820184528082529181018290529182015290565b4662aa36a703620001a8575060408051606080820183525f8083526020808401829052928401528251908101835273f0ffdc93b7e186bc2f8cb3daa75d86d1930a433d81527392c920834ec8941d2c77d188936e1f7a6f49c1279181019190915273be0e383937d564d7ff0bc3b46c51f0bf8d5c311a9181019190915290565b46617a690362000227575060408051606080820183525f808352602080840182905292840152825190810183527350157cffd6bbfa2dece204a89ec419c23ef5755d815273e3a9105a3a932253a70f126eb1e3b589c643dd249181019190915273901f8942346f7ab3a01f6d7613119bca447bb0309181019190915290565b6040516373cac13b60e01b815260040160405180910390fd5b61202c806200024e5f395ff3fe608060405234801561000f575f80fd5b50600436106100e5575f3560e01c806388d21ff3116100885780639534e637116100635780639534e637146101e0578063ac2f0074146101f3578063de2e19a014610217578063f8c860f41461022a575f80fd5b806388d21ff31461019c5780638927b030146101c15780639207891d146101d7575f80fd5b806343859632116100c3578063438596321461013e5780634495a353146101615780635eff1bb81461018157806362cb7ce914610194575f80fd5b8063135a3294146100e95780631a8cbcaa146100fe5780631f35b51d1461012b575b5f80fd5b6100fc6100f736600461189d565b61023d565b005b61011161010c36600461195f565b610472565b6040516101229594939291906119b9565b60405180910390f35b6100fc61013936600461195f565b610644565b61015161014c366004611a46565b61071b565b6040519015158152602001610122565b61017461016f36600461195f565b610779565b6040516101229190611a7f565b6100fc61018f366004611ac2565b61080a565b610174610a2b565b6101516101aa36600461195f565b5f9081526020819052604090206008015460ff1690565b6101c9610b81565b604051908152602001610122565b6101c960015481565b6100fc6101ee36600461195f565b610b8f565b61020661020136600461195f565b610d0e565b604051610122959493929190611b3b565b6101c9610225366004611b7c565b610dd3565b6101c9610238366004611b9c565b610e75565b5f838152602081905260409020600881015460ff166102775760405162461bcd60e51b815260040161026e90611c70565b60405180910390fd5b600681015460ff16156102c05760405162461bcd60e51b8152602060048201526011602482015270506f6c6c207374696c6c2061637469766560781b604482015260640161026e565b6007810154156103125760405162461bcd60e51b815260206004820152601960248201527f526573756c747320616c7265616479207375626d697474656400000000000000604482015260640161026e565b600181015483511461035f5760405162461bcd60e51b8152602060048201526016602482015275092dcecc2d8d2c840e4cae6ead8e8e640d8cadccee8d60531b604482015260640161026e565b60018101545f9067ffffffffffffffff81111561037e5761037e6117c9565b6040519080825280602002602001820160405280156103a7578160200160208202803683370190505b5090505f5b60018301548110156103ed575f8181526002840160205260409020548282815181106103da576103da611c9d565b60209081029190910101526001016103ac565b505f846040516020016104009190611a7f565b604051602081830303815290604052905061041c82828661103d565b845161043190600785019060208801906116ca565b50857f3da3fce908f87941c090238726d4fc7c7842bbc889b08145d480c02bdf384760866040516104629190611a7f565b60405180910390a2505050505050565b5f8181526020819052604081206008810154606092839290918291829160ff166104ae5760405162461bcd60e51b815260040161026e90611c70565b6004810154600582015460068301548354849360018501936001600160a01b0390911692909160ff9091169085906104e590611cb1565b80601f016020809104026020016040519081016040528092919081815260200182805461051190611cb1565b801561055c5780601f106105335761010080835404028352916020019161055c565b820191905f5260205f20905b81548152906001019060200180831161053f57829003601f168201915b5050505050945083805480602002602001604051908101604052809291908181526020015f905b8282101561062b578382905f5260205f200180546105a090611cb1565b80601f01602080910402602001604051908101604052809291908181526020018280546105cc90611cb1565b80156106175780601f106105ee57610100808354040283529160200191610617565b820191905f5260205f20905b8154815290600101906020018083116105fa57829003601f168201915b505050505081526020019060010190610583565b50979f929e50949c50929a509098509650505050505050565b5f818152602081905260409020600881015460ff166106755760405162461bcd60e51b815260040161026e90611c70565b60048101546001600160a01b031633146106d15760405162461bcd60e51b815260206004820152601760248201527f4f6e6c792063726561746f722063616e2064656c657465000000000000000000604482015260640161026e565b60088101805460ff199081169091556006820180549091169055604051339083907f05b0e65544d0436a1daaedf13ce02b014ed3a784e1cc64858063a94d228c989d905f90a35050565b5f8281526020819052604081206008015460ff1661074b5760405162461bcd60e51b815260040161026e90611c70565b505f828152602081815260408083206001600160a01b038516845260030190915290205460ff165b92915050565b5f8181526020819052604090206008015460609060ff166107ac5760405162461bcd60e51b815260040161026e90611c70565b5f8281526020818152604091829020600701805483518184028101840190945280845290918301828280156107fe57602002820191905f5260205f20905b8154815260200190600101908083116107ea575b50505050509050919050565b5f848152602081905260409020600881015460ff1661083b5760405162461bcd60e51b815260040161026e90611c70565b600681015460ff166108815760405162461bcd60e51b815260206004820152600f60248201526e506f6c6c206e6f742061637469766560881b604482015260640161026e565b806005015442106108c15760405162461bcd60e51b815260206004820152600a602482015269141bdb1b08195b99195960b21b604482015260640161026e565b335f90815260038201602052604090205460ff16156109125760405162461bcd60e51b815260206004820152600d60248201526c105b1c9958591e481d9bdd1959609a1b604482015260640161026e565b5f6109528585858080601f0160208091040260200160405190810160405280939291908181526020018383808284375f920191909152506110a892505050565b90505f5b60018301548110156109e0575f61096c826110b5565b90505f61097984836110c4565b90505f6109988261098a60016110f2565b6109935f6110f2565b611104565b5f8581526002880160205260409020549091506109b5908261114b565b5f85815260028801602052604090208190556109d090611179565b5050600190920191506109569050565b50335f818152600384016020526040808220805460ff191660011790555188917ff1003b73c437642c0460aee9cd9628b0b8c447b66e6c7c905531b9c644214a1191a3505050505050565b60605f805b600154811015610aa0575f8181526020819052604090206008015460ff168015610a6a57505f8181526020819052604090206006015460ff165b8015610a8557505f8181526020819052604090206005015442105b15610a985781610a9481611cfd565b9250505b600101610a30565b505f8167ffffffffffffffff811115610abb57610abb6117c9565b604051908082528060200260200182016040528015610ae4578160200160208202803683370190505b5090505f805b600154811015610b78575f8181526020819052604090206008015460ff168015610b2457505f8181526020819052604090206006015460ff165b8015610b3f57505f8181526020819052604090206005015442105b15610b705780838381518110610b5757610b57611c9d565b602090810291909101015281610b6c81611cfd565b9250505b600101610aea565b50909392505050565b5f610b8a611188565b905090565b5f818152602081905260409020600881015460ff16610bc05760405162461bcd60e51b815260040161026e90611c70565b60048101546001600160a01b03163314610c155760405162461bcd60e51b81526020600482015260166024820152754f6e6c792063726561746f722063616e20636c6f736560501b604482015260640161026e565b8060050154421015610c5e5760405162461bcd60e51b8152602060048201526012602482015271141bdb1b081b9bdd08195b991959081e595d60721b604482015260640161026e565b600681015460ff16610ca35760405162461bcd60e51b815260206004820152600e60248201526d105b1c9958591e4818db1bdcd95960921b604482015260640161026e565b5f5b6001820154811015610cd3575f818152600283016020526040902054610cca906111bc565b50600101610ca5565b5060068101805460ff1916905560405182907f703c67c157a1afb7d386ce5212ee88bf0a690bca998060e9595ebdfd747100ce905f90a25050565b5f60208190529081526040902080548190610d2890611cb1565b80601f0160208091040260200160405190810160405280929190818152602001828054610d5490611cb1565b8015610d9f5780601f10610d7657610100808354040283529160200191610d9f565b820191905f5260205f20905b815481529060010190602001808311610d8257829003601f168201915b50505060048401546005850154600686015460089096015494956001600160a01b039092169490935060ff91821692501685565b5f8281526020819052604081206008015460ff16610e035760405162461bcd60e51b815260040161026e90611c70565b5f838152602081905260409020600101548210610e535760405162461bcd60e51b815260206004820152600e60248201526d24b73b30b634b21037b83a34b7b760911b604482015260640161026e565b5f838152602081815260408083208584526002019091529020545b9392505050565b5f80845111610ec65760405162461bcd60e51b815260206004820152601860248201527f5175657374696f6e2063616e6e6f7420626520656d7074790000000000000000604482015260640161026e565b6002835110158015610eda57506005835111155b610f1d5760405162461bcd60e51b81526020600482015260146024820152730c8b4d481bdc1d1a5bdb9cc81c995c5d5a5c995960621b604482015260640161026e565b600180545f9182610f2d83611cfd565b909155505f81815260208190526040902090915080610f4c8782611d61565b508451610f62906001830190602088019061170f565b506004810180546001600160a01b03191633179055610f8384610e10611e21565b610f8d9042611e38565b6005820155600681018054600160ff19918216811790925560088301805490911690911790555f5b8551811015610feb57610fc75f6110f2565b5f8281526002840160205260409020819055610fe290611179565b50600101610fb5565b50336001600160a01b0316827f29f758df3e81eeecf732e452ff26f333ec14ae9aa2d08ae1ce7b5af71808026b88846005015460405161102c929190611e4b565b60405180910390a350949350505050565b5f6110498484846111c6565b9050806110695760405163cf6c44e960e01b815260040160405180910390fd5b7fc6366bab028b8d033cb362cfd1f2f3457ef4e92fc738b6788b90d5a7846367a0848460405161109a929190611ea6565b60405180910390a150505050565b5f610e6e83836002611273565b5f6107738260ff16600261136d565b5f826110d6576110d35f6110b5565b92505b816110e7576110e45f6110b5565b91505b610e6e83835f6113fc565b5f6107738263ffffffff16600461136d565b5f83611116576111135f6114b9565b93505b82611127576111245f6110f2565b92505b81611138576111355f6110f2565b91505b6111438484846114d4565b949350505050565b5f8261115d5761115a5f6110f2565b92505b8161116e5761116b5f6110f2565b91505b610e6e83835f611561565b5f61118482306115d8565b5090565b5f466001036111975750600190565b4662aa36a7036111a8575061271190565b46617a69036111b757505f1990565b505f90565b5f6111848261164c565b7f9e7b61f58c47dc699ac88507c4f5bb9f121c03808c5676a8078fe583e4649702546040516378542ead60e01b81525f915f80516020611fd7833981519152916001600160a01b03909116906378542ead9061122a90889088908890600401611eca565b6020604051808303815f875af1158015611246573d5f803e3d5ffd5b505050506040513d601f19601f8201168201806040525081019061126a9190611f02565b95945050505050565b5f80516020611fb78339815191525460405163045fc19560e11b81525f915f80516020611fd7833981519152916001600160a01b03909116906308bf832a906112c6908890339089908990600401611f41565b6020604051808303815f875af11580156112e2573d5f803e3d5ffd5b505050506040513d601f19601f820116820180604052508101906113069190611f79565b8154604051630f8e573b60e21b8152600481018390523360248201529193506001600160a01b031690633e395cec906044015f604051808303815f87803b15801561134f575f80fd5b505af1158015611361573d5f803e3d5ffd5b50505050509392505050565b5f80516020611fb783398151915254604051639cd07acb60e01b81525f915f80516020611fd7833981519152916001600160a01b0390911690639cd07acb906113bc9087908790600401611f90565b6020604051808303815f875af11580156113d8573d5f803e3d5ffd5b505050506040513d601f19601f820116820180604052508101906111439190611f79565b5f80821561140f5750600160f81b611412565b505f5b5f80516020611fb78339815191525460405163f77f3f1d60e01b815260048101879052602481018690526001600160f81b0319831660448201525f80516020611fd7833981519152916001600160a01b03169063f77f3f1d906064015b6020604051808303815f875af115801561148b573d5f803e3d5ffd5b505050506040513d601f19601f820116820180604052508101906114af9190611f79565b9695505050505050565b5f610773826114c8575f6114cb565b60015b60ff165f61136d565b5f805f80516020611fd78339815191526001810154604051637702dcff60e01b81526004810188905260248101879052604481018690529192506001600160a01b031690637702dcff906064016020604051808303815f875af115801561153d573d5f803e3d5ffd5b505050506040513d601f19601f8201168201806040525081019061126a9190611f79565b5f8082156115745750600160f81b611577565b505f5b5f80516020611fb78339815191525460405163022f65e760e31b815260048101879052602481018690526001600160f81b0319831660448201525f80516020611fd7833981519152916001600160a01b03169063117b2f389060640161146f565b5f80516020611fd78339815191528054604051635ca4b5b160e11b8152600481018590526001600160a01b0384811660248301529091169063b9496b62906044015b5f604051808303815f87803b158015611631575f80fd5b505af1158015611643573d5f803e3d5ffd5b50505050505050565b6040805160018082528183019092525f80516020611fd7833981519152915f91906020808301908036833701905050905082815f8151811061169057611690611c9d565b60209081029190910101528154604051637d6e912360e11b81526001600160a01b039091169063fadd22469061161a908490600401611fa4565b828054828255905f5260205f20908101928215611703579160200282015b828111156117035782518255916020019190600101906116e8565b5061118492915061175f565b828054828255905f5260205f20908101928215611753579160200282015b8281111561175357825182906117439082611d61565b509160200191906001019061172d565b50611184929150611773565b5b80821115611184575f8155600101611760565b80821115611184575f611786828261178f565b50600101611773565b50805461179b90611cb1565b5f825580601f106117aa575050565b601f0160209004905f5260205f20908101906117c6919061175f565b50565b634e487b7160e01b5f52604160045260245ffd5b604051601f8201601f1916810167ffffffffffffffff81118282101715611806576118066117c9565b604052919050565b5f67ffffffffffffffff821115611827576118276117c9565b5060051b60200190565b5f82601f830112611840575f80fd5b813567ffffffffffffffff81111561185a5761185a6117c9565b61186d601f8201601f19166020016117dd565b818152846020838601011115611881575f80fd5b816020850160208301375f918101602001919091529392505050565b5f805f606084860312156118af575f80fd5b8335925060208085013567ffffffffffffffff808211156118ce575f80fd5b818701915087601f8301126118e1575f80fd5b81356118f46118ef8261180e565b6117dd565b81815260059190911b8301840190848101908a831115611912575f80fd5b938501935b8285101561193057843582529385019390850190611917565b965050506040870135925080831115611947575f80fd5b505061195586828701611831565b9150509250925092565b5f6020828403121561196f575f80fd5b5035919050565b5f81518084525f5b8181101561199a5760208185018101518683018201520161197e565b505f602082860101526020601f19601f83011685010191505092915050565b60a081525f6119cb60a0830188611976565b6020838203818501528188518084528284019150828160051b850101838b015f5b83811015611a1a57601f19878403018552611a08838351611976565b948601949250908501906001016119ec565b50506001600160a01b038a16604088015260608701899052871515608088015294506114af9350505050565b5f8060408385031215611a57575f80fd5b8235915060208301356001600160a01b0381168114611a74575f80fd5b809150509250929050565b602080825282518282018190525f9190848201906040850190845b81811015611ab657835183529284019291840191600101611a9a565b50909695505050505050565b5f805f8060608587031215611ad5575f80fd5b8435935060208501359250604085013567ffffffffffffffff80821115611afa575f80fd5b818701915087601f830112611b0d575f80fd5b813581811115611b1b575f80fd5b886020828501011115611b2c575f80fd5b95989497505060200194505050565b60a081525f611b4d60a0830188611976565b6001600160a01b0396909616602083015250604081019390935290151560608301521515608090910152919050565b5f8060408385031215611b8d575f80fd5b50508035926020909101359150565b5f805f60608486031215611bae575f80fd5b833567ffffffffffffffff80821115611bc5575f80fd5b611bd187838801611831565b9450602091508186013581811115611be7575f80fd5b8601601f81018813611bf7575f80fd5b8035611c056118ef8261180e565b81815260059190911b8201840190848101908a831115611c23575f80fd5b8584015b83811015611c5957803586811115611c3d575f80fd5b611c4b8d8983890101611831565b845250918601918601611c27565b50979a979950505050604095909501359450505050565b602080825260139082015272141bdb1b08191bd95cc81b9bdd08195e1a5cdd606a1b604082015260600190565b634e487b7160e01b5f52603260045260245ffd5b600181811c90821680611cc557607f821691505b602082108103611ce357634e487b7160e01b5f52602260045260245ffd5b50919050565b634e487b7160e01b5f52601160045260245ffd5b5f60018201611d0e57611d0e611ce9565b5060010190565b601f821115611d5c57805f5260205f20601f840160051c81016020851015611d3a5750805b601f840160051c820191505b81811015611d59575f8155600101611d46565b50505b505050565b815167ffffffffffffffff811115611d7b57611d7b6117c9565b611d8f81611d898454611cb1565b84611d15565b602080601f831160018114611dc2575f8415611dab5750858301515b5f19600386901b1c1916600185901b178555611e19565b5f85815260208120601f198616915b82811015611df057888601518255948401946001909101908401611dd1565b5085821015611e0d57878501515f19600388901b60f8161c191681555b505060018460011b0185555b505050505050565b808202811582820484141761077357610773611ce9565b8082018082111561077357610773611ce9565b604081525f611e5d6040830185611976565b90508260208301529392505050565b5f815180845260208085019450602084015f5b83811015611e9b57815187529582019590820190600101611e7f565b509495945050505050565b604081525f611eb86040830185611e6c565b828103602084015261126a8185611976565b606081525f611edc6060830186611e6c565b8281036020840152611eee8186611976565b905082810360408401526114af8185611976565b5f60208284031215611f12575f80fd5b81518015158114610e6e575f80fd5b60548110611f3d57634e487b7160e01b5f52602160045260245ffd5b9052565b8481526001600160a01b03841660208201526080604082018190525f90611f6a90830185611976565b905061126a6060830184611f21565b5f60208284031215611f89575f80fd5b5051919050565b82815260408101610e6e6020830184611f21565b602081525f610e6e6020830184611e6c56fe9e7b61f58c47dc699ac88507c4f5bb9f121c03808c5676a8078fe583e46497019e7b61f58c47dc699ac88507c4f5bb9f121c03808c5676a8078fe583e4649700a2646970667358221220f0c53b30494b861dbd69a591cc697f417c6f9f55dfbc339a560d86e63abdaa4664736f6c63430008180033",
  "linkReferences": {},
  "deployedLinkReferences": {}
}